:100000000C9457010C944C240C9473240C94862269
:100010000C9486220C9486220C947F010C947F0110
:100020000C947F010C947F010C947F010C947F0150
:100030000C947F010C947F010C947F010C947F0140
:100040000C949A240C9412020C947F010C947F015E
:100050000C947F010C947F010C947F010C947F0120
:100060000C947F010C947F012604300437043E0475
:1000700048045204590463046D047404A405A905DA
:10008000EE05BF05D005CB05DF05E405E905200633
:1000900025062C0636063D0644064E0653065A062D
:1000A00087068C06C7069806A906A406B806BD06EC
:1000B000C20665073D0747074B0752075907600708
:1000C0006C077607CA07A207AC07B007B707BE07D9
:1000D000C507D107DB072708FF0709080D08140823
:1000E0001B0822082E0838083A0983099209D90901
:1000F000040A520AA30AF00A080B350B1310131056
:1001000013101310131013101310790BBE0BEA0BFE
:10011000210C4E0C980C1310D20C0E0D1310260D42
:100120005C0D870DCE0D110E470E13108E0ED90EDD
:100130001D0F840FC20F420F1310F60F141A4F1A1F
:10014000B61AFD1A6F1BDB1B8B1CDE1C1C1D5A1DF7
:10015000005EBCE2613FDD83C29C7E20A3FD1F41A7
:100160009DC3217FFCA2401E5F01E3BD3E6082DC97
:10017000237D9FC1421CFEA0E1BF5D0380DE3C6287
:10018000BEE0025CDF81633D7C22C09E1D43A1FF77
:100190004618FAA427799BC584DA3866E5BB590767
:1001A000DB856739BAE406581947A5FB7826C49A57
:1001B000653BD987045AB8E6A7F91B45C6987A2447
:1001C000F8A6441A99C7257B3A6486D85B05E7B937
:1001D0008CD2306EEDB3510F4E10F2AC2F7193CD27
:1001E000114FADF3702ECC92D38D6F31B2EC0E5017
:1001F000AFF1134DCE90722C6D33D18F0C52B0EE07
:10020000326C8ED0530DEFB1F0AE4C1291CF2D73F6
:10021000CA947628ABF517490856B4EA6937D58BE6
:100220005709EBB536688AD495CB2977F4AA4816D6
:10023000E9B7550B88D6346A2B7597C94A14F6A8C6
:10024000742AC896154BA9F7B6E80A54D7896B35B6
:100250000000000800020100000304070000000085
:100260000000000001020408102040800102040880
:1002700010200102040810200404040404040404EF
:100280000202020202020303030303030000000050
:1002900023002600290000000000250028002B0074
:1002A00000000000240027002A0043105C101124E5
:1002B0001FBECFEFD8E0DEBFCDBF11E0A0E0B1E0C0
:1002C000EAE3F7E502C005900D92A23EB107D9F727
:1002D00023E0A2EEB1E001C01D92AE3EB207E1F70D
:1002E00012E0CCEAD2E004C02297FE010E94CE28A0
:1002F000CA3AD107C9F70E9443280C94902B0C945A
:1003000000008CB5806C8CBD08958AEE91E00E944F
:10031000002389E092E00E94002388E693E00C9499
:100320009526CF92DF92EF92FF920F931F93CF9378
:10033000DF9300D0CDB7DEB76C018B017C0184E088
:10034000E80EF11CC60169837A830E94332BF80101
:1003500081938F01FFEFCF1ADF0A69817A81CE1472
:10036000DF0481F7CB010F900F90DF91CF911F91A8
:100370000F91FF90EF90DF90CF900895EF92FF9252
:100380000F931F93CF93DF931F92CDB7DEB77C01FE
:10039000FC0100811181C80169830E94332B6981AE
:1003A000681719F0C8010E943B2BC7010F90DF911D
:1003B000CF911F910F91FF90EF900895BF92CF9230
:1003C000DF92EF92FF920F931F93CF93DF9300D0B2
:1003D0001F92CDB7DEB78C01B62EE62EF72E6C013C
:1003E00084E0C80ED11CF70161917F011A83098353
:1003F000CE0101967B830E94BE010F5F1F4F7B8160
:100400000C151D0581F78B2D972F0F900F900F90D6
:10041000DF91CF911F910F91FF90EF90DF90CF90E0
:10042000BF9008951F920F920FB60F9211242F9331
:100430003F934F935F936F937F938F939F93AF936C
:10044000BF93EF93FF938EB5E0916F03909170038C
:100450002BE0E29FF0011124E90FF11DEF58FC4F52
:100460008083809170038F5F80937003809170030D
:100470008B3039F480916F038F5F80936F031092FC
:10048000700380916F03843049F480E00E943A2425
:1004900081E080936E038CB58F738CBDFF91EF91DB
:1004A000BF91AF919F918F917F916F915F914F918C
:1004B0003F912F910F900FBE0F901F901895CF93E3
:1004C000DF93D82FC8E0D0FF02C05F9A01C05F98C9
:1004D00081E090E00E944D255E9A81E090E00E94CC
:1004E0004D255E98D695C15071F7DF91CF91089553
:1004F000FF920F931F93CF93DF93EC0184E0F82ECC
:1005000060E085E00E9412268E01055F1F4F8991F1
:100510000E945F02C017D107D1F761E085E00E9419
:100520001226FA9469F7DF91CF911F910F91FF90F6
:10053000089541E062E472E088E292E00E94F820CF
:10054000811104C088E292E00E94C32061E085E04E
:100550000E94D9251CBC84EE8CBD40E052EC61E0C9
:1005600070E08AEE91E00E94892360E08BE00E94B7
:10057000D92560E082E00E94D92561E082E00E94F6
:10058000122661E08BE00E94122660E08DE00E945E
:10059000D92560E08AE00E94D92560E08AE00E94C7
:1005A000122661E087E00E94D92561E086E00E9482
:1005B000D9251092700310926F0310926E0361E0C0
:1005C00084E00E94122661E083E10E94D92560E068
:1005D00083E10E94122661E082E10E94D92561E058
:1005E00082E10E941226399A419843E050E061E886
:1005F00071E080E00E941A2480E090E00E94332B9A
:1006000080934B028F3F11F080934C0289E090E081
:100610000E94332B8130C1F469EE72E081E090E0FA
:100620000E94910169EF72E085E090E00E949101E3
:1006300065EE72E08AE090E00E94910165EF72E061
:100640008EE090E00E9491012091E9023091EA024F
:100650004091EB025091EC02A8EEB3E00E94E82832
:100660002091F9023091FA024091FB025091FC0274
:100670000E948B282093DD023093DE024093DF023C
:100680005093E00245EA52E020E030E060E470E29E
:10069000A0E1B8E080E090E0FA01E80FF91F1082D5
:1006A0002115310531F48A309105E9F4B093AF0298
:1006B0001AC02130310531F48A309105A1F4A0939C
:1006C000BA0211C02230310531F48A30910559F453
:1006D0007093C50208C02330310529F48A30910592
:1006E00011F46093D00201968B309105A9F62F5F2B
:1006F0003F4F455F5F4F2430310561F685EA92E058
:100700000C947802CF93DF93EC0182E00E94932552
:1007100028EE33E0DC010E94E1282FEF33E040E0D7
:1007200050E00E94AD28DE010E94E82828EE33E068
:1007300040E050E00E94AD28C901DF91CF910895BB
:10074000FC0190E080E0961729F020813296820F1C
:100750009F5FF9CF08952091A202322F3068309325
:10076000A202181619060CF05DC0206A2093A2029E
:100770008E3091050CF456C030918102232F2061F8
:10078000209381028C3191050CF44CC0209197028A
:10079000206820939702873291050CF443C0209182
:1007A0008C02206820938C0284339105DCF130693F
:1007B0003093810281349105ACF12091A302216034
:1007C0002093A3028E3491056CF18B35910554F181
:1007D00020918202322F3160309382028736910558
:1007E0000CF130918D02432F416040938D0284378C
:1007F0009105C4F0409198028138910524F441603C
:100800004093980208954360409398028E38910572
:100810004CF0336030938D028A3991051CF02360CF
:1008200020938202089590917C02906890937C02BC
:1008300090E08A30910508F067C0FC01EC5CFF4F46
:1008400030918802209193020C94CC2880917D02F3
:10085000816080937D0233603093880222604DC0B6
:100860003260309388022260209393020895809131
:100870007D02816080937D02316006C080917D029F
:10088000816080937D0232603093880223601FC0B4
:1008900032603093880223602093930280919E02FD
:1008A000816030C080917D02816080937D023260E2
:1008B00006C080917D02816080937D023360309319
:1008C000880221601AC0326030938802226020932F
:1008D000930280919E02826015C080917D028160AA
:1008E00080937D02336006C080917D028160809399
:1008F0007D023260309388022360209393028091BE
:100900009E02836080939E020895CF93DF9367E0F9
:1009100082E492E00E9495219091490289133AC0A5
:1009200080914202803111F08832A1F588E292E094
:100930000E94A01F62E472E088E292E00E949B2085
:1009400040E064E488E292E00E943D2088E292E088
:100950000E94A01F62E472E088E292E00E949B2065
:1009600040E06EEB88E292E00E943D20C6E3D2E0D8
:1009700088E292E00E947F20899382E0CF33D807FB
:10098000B9F78091370290E0982F8827209136029E
:10099000822B02C088E19CEFDF91CF910895CF9226
:1009A000DF92EF92FF920F931F93CF93DF93C82EA6
:1009B000D62EC9016AE070E00E946328059714F002
:1009C000411107C0C9016AE070E00E946328FB0181
:1009D00002C0FB013196CF0168EE73E00E946328EC
:1009E0009B01CF0164E670E00E946328CB010AE01E
:1009F00010E0B8010E946328EC01CF01B8010E9409
:100A000063287C01CB01B8010E946328AC01C110AE
:100A100011C0209709F4CCC1C130D10531F48091C7
:100A2000960281608093960205C080918A0280625E
:100A300080938A02DD2029F08091A1028068809352
:100A4000A1022330310559F184F421303105F1F050
:100A50002230310509F050C080917F02806180937F
:100A60007F0280918A02886222C02530310581F19F
:100A700024F12630310509F03FC080917F0280616A
:100A800080937F0280918A0288662AC080918A02C0
:100A9000806480938A0280919502806416C0809160
:100AA0007F02806180937F0280918A0280668093BA
:100AB0008A0280919502806518C080918A028066C2
:100AC00080938A028091950288658093950214C074
:100AD00080917F02806180937F0280918A0280668C
:100AE00080938A028091950288618093950280911B
:100AF000A00280648093A002FE013197E930F105E5
:100B000040F4E25CFF4F8091960290918B020C942E
:100B1000CC282115310509F471C080918A028068C2
:100B200080938A02809195028068809395028091DB
:100B3000800281608093800280918B028460809328
:100B40008B02809196023EC0946090938B028460E9
:100B50001FC06091800261606093800292609093F8
:100B60008B028560809396028091A10284608093BD
:100B7000A10280918A02806880938A023FC06091BE
:100B80009502606860939502966090938B028560F1
:100B90008093960233C060918A02606860938A02F3
:100BA0006091950260686093950260918002616037
:100BB00060938002966090938B02816018C094606D
:100BC00090938B02846013C060918A026068609386
:100BD0008A0260919502606860939502609180023C
:100BE000616060938002966090938B028560809331
:100BF00096028091A10284608093A102FA0131974C
:100C0000E930F10540F4E95BFF4F80919602909145
:100C10008B020C94CC28CD2B29F4232B19F4DD2046
:100C200009F458C080918002806180938002809195
:100C30008B02886480938B0280919602886443C003
:100C4000906490938B02806415C020918002206193
:100C500020938002986206C0209180022061209338
:100C60008002906690938B0280652DC09066909371
:100C70008B028865809396022DC0209180022061AE
:100C800020938002906606C020918002206120930C
:100C90008002986690938B02886115C0906490934F
:100CA0008B02806410C0209180022061209380021A
:100CB000986606C020918002206120938002906691
:100CC00090938B028865809396028091A102806444
:100CD0008093A102F701319790918C028091970245
:100CE000E930F10520F4E05BFF4F0C94CC28209113
:100CF0008B02206820938B0220919602206820931B
:100D000096022091810221602093810231C094607B
:100D100090938C02846015C020918B0220682093F0
:100D20008B0220918102216020938102926035C064
:100D300020919602206820939602966090938C02F0
:100D40008560809397023AC020918B02206820939F
:100D50008B022091960220682093960220918102B6
:100D6000216020938102966090938C02816018C06C
:100D7000946090938C02846013C020918B02206851
:100D800020938B0220919602206820939602209156
:100D90008102216020938102966090938C0285608D
:100DA000809397028091A20284608093A20206C081
:100DB00080918B02826080938B023CCEDF91CF9139
:100DC0001F910F91FF90EF90DF90CF900895AF9219
:100DD000BF92DF92EF92FF920F931F93CF93DF9317
:100DE000D82ECB016AE070E00E9463289B01059732
:100DF00014F02F5F3F4FC90168EE73E00E94632833
:100E0000EB01C90164E670E00E9463280AE010E08B
:100E1000CB01B8010E9463287C01C901B8010E947E
:100E200063285C01CB01B8010E9463289C01DD208E
:100E300029F080919C02806280939C02C130D10590
:100E400019F481E080939202A701415051099091D9
:100E50008602809191024930510528F4475A5F4F2C
:100E6000FA010C94CC28209709F450C040917B02E1
:100E7000406C40937B02906435C040917B0240649B
:100E800040937B02906C90938602806838C04091BA
:100E90007B0240642EC040917B02406840937B02FD
:100EA000906C14C040917B02406C40937B02906830
:100EB00023C040917B02406C40937B02906812C03B
:100EC00040917B02406440937B0290649093860241
:100ED0008064809391021AC040917B02406C4093E1
:100EE0007B02906C90938602806C09C040917B02DB
:100EF000406C40937B02906C909386028064809358
:100F0000910280919C02806480939C02215031095F
:100F100090918602809191022930310528F42E5952
:100F20003F4FF9010C94CC28EF2829F4CD2B19F46C
:100F3000DD2009F450C020917B02206320937B02C6
:100F4000906135C020917B02206120937B029063E9
:100F500090938602806238C020917B0220612EC06F
:100F600020917B02206220937B02906314C0209129
:100F70007B02206320937B02906223C020917B023E
:100F8000206320937B02906212C020917B0220613B
:100F900020937B02906190938602806180939102FE
:100FA0001AC020917B02206320937B029063909370
:100FB0008602806309C020917B02206320937B021C
:100FC00090639093860280618093910280919C024D
:100FD000806180939C02F501319790918602809107
:100FE0009102E930F10520F4E559FF4F0C94CC282B
:100FF00020917B022C6020937B02946035C020916D
:101000007B02246020937B029C6090938602886020
:1010100038C020917B0224602EC020917B02286082
:1010200020937B029C6014C020917B022C60209353
:101030007B02986023C020917B022C6020937B026E
:10104000986012C020917B02246020937B02946000
:10105000909386028460809391021AC020917B0253
:101060002C6020937B029C60909386028C6009C068
:1010700020917B022C6020937B029C6090938602DF
:1010800084608093910280919C02846080939C0292
:10109000DF91CF911F910F91FF90EF90DF90BF9064
:1010A000AF9008952F923F924F925F926F927F92EE
:1010B0008F929F92AF92BF92CF92DF92EF92FF9268
:1010C0000F931F93CF93DF9300D01F92CDB7DEB75E
:1010D0005C01E62FDC018D010A191B098D9181113C
:1010E000FACF8091E8019091E9018017910791F082
:1010F0001092E7011092E6018FEF9FEF9093E501C8
:101100008093E4011092E3011092E2011093E9014F
:101110000093E80128E030E02E1B31092017310749
:101120000CF057C080912D0390912E03A0912F03B6
:10113000B09130034091050350910603609107037D
:10114000709108032C013D01441A550A660A770A7A
:10115000B301A2014B3F51056105710508F443C07D
:101160006091E4017091E501AB014F5F5F4F421761
:10117000530714F19801215031096217730759F48C
:10118000E090E201F090E301FFEFEF1AFF0AF09226
:10119000E301E092E201E090E601F090E701E2165F
:1011A000F3063CF4FFEFEF1AFF0AF092E701E0923A
:1011B000E6016217730724F45093E5014093E401BC
:1011C0008093050390930603A0930703B09308034D
:1011D0000AC01092E7011092E601C80101979093AE
:1011E000E5018093E4012090E4013090E5018090D6
:1011F000E6019090E7014090E201420C74014E0E2E
:10120000498248E050E081E090E029812E192E14B7
:101210003F040CF40CC7A22FA695B0E0E22FE170BA
:101220002E2F30E0BD01620F731FEE2319F01B82D9
:101230001A8204C0E4E0F0E0FB83EA83220F331F4C
:10124000220F331F6501CE0CDF1CF60140805524B0
:1012500047FC5094652C752C6201F0E3CF1AD1083D
:10126000EAE2CE16D10408F0DEC6F601EC58FF4FD4
:101270000C94CC28E7E04E2E512C4A1A5B0AD2017E
:10128000EA81FB8133966C0101C0CC0CEA95EAF748
:10129000A758BD4F1B96EC911B97EC291B96EC931E
:1012A0001B975696EC915697EC295696EC935697C9
:1012B000FA01E61BF70BB9016E5F7F4F3C0102C0DC
:1012C000660C771C6A95E2F7B301E758FD4F768903
:1012D000D384D62AD386D1A0D62AD1A23C01022E0D
:1012E00001C0660C0A94EAF7D080D628D0822F5F1E
:1012F0003F4F2C0102C0440C551C2A95E2F7762B77
:101300007429768BFDC5FA01E61BF70B2E5F3F4F64
:101310003C0102C0660C771C2A95E2F79301E7585E
:10132000FD4F6FC16A01C61AD70AB6016901E2E032
:10133000CE0ED11C2C0102C0440C551CCA94E2F7FD
:10134000620167587D4FFB01D1A0DC28D1A27688CD
:101350007C286901FFEFCF1ADF0A2C0102C0440C80
:10136000551CCA94E2F7FB013385342933872C01DD
:1013700002C0440C551C2A95E2F792017428768A23
:1013800037E0632E712C6A1A7B0AD301A758BD4F30
:10139000EA81FB8133966C0102C0CC0CDD1CEA951E
:1013A000E2F71B963C911B973C291B963C93DB0173
:1013B000C6C0FA01E61BF70BB9016E5F7F4F2C0127
:1013C00002C0440C551C6A95E2F7B201E758FD4F84
:1013D00071A1762B71A3A689A62BB385B62BB90173
:1013E0006F5F7F4F3C0102C0660C771C6A95E2F785
:1013F000B629B3876C0102C0CC0CDD1C2A95E2F73C
:101400009601AC29A68BBAC5FA01E61BF70BBF0102
:101410006901F2E0CF0ED11C2C0102C0440C551C16
:10142000CA94E2F7620167587D4FFB01D688DC2839
:10143000D68AD384DC28D386F7E04F2E512C4A1A63
:101440005B0AD201A758BD4FEA81FB8133963C016C
:1014500002C0660C771CEA95E2F7F3015696FC9100
:101460005697FE2B5696FC93F90131966C0102C0FB
:10147000CC0CDD1CEA95E2F7DB011B963C911B9737
:101480003C291B963C931B97FC0102C0EE0FFF1FEB
:101490002A95E2F79F0156963C915697322B569625
:1014A0003C93C1C52A01461A570AB2016901E2E01C
:1014B000CE0ED11C2C0102C0440C551CCA94E2F77C
:1014C000620167587D4FFB01D1A0DC28D1A2E7E083
:1014D0004E2E512C4A1A5B0AD201A758BD4FEA8101
:1014E000FB8133963C0102C0660C771CEA95E2F75B
:1014F000F3015696FC915697FE2B5696FC93F901F4
:101500003196DC0102C0AA0FBB1FEA95E2F7FD018C
:10151000DB011B96FC911B972C0102C0440C551C4F
:101520002A95E2F7920156963C915697322B5696A1
:101530003C935697FE2BFC291B96FC931B973C91E2
:10154000322B3C9370C53A01661A770AB3016901E0
:10155000E2E0CE0ED11C2C0102C0440C551CCA94F2
:10156000E2F7620167587D4FFB01D1A0DC28D1A2D0
:10157000F7E04F2E512C4A1A5B0AD201EA81FB8117
:1015800033963C0101C0660CEA95EAF7A758BD4FB7
:101590005696EC915697E6295696EC935697F90194
:1015A00031962C0102C0440C551CEA95E2F75B828F
:1015B0004A82FB01D3842C0102C0440C551C2A959D
:1015C000E2F792013689322B368B5A80D528DC28F7
:1015D000D3861B963C911B9736291B963C93CEC411
:1015E000FA01E61BF70B2E5F3F4F3C0102C0660C71
:1015F000771C2A95E2F79301E758FD4F31A1322B72
:1016000031A33689322B368B3385322B33870BC58A
:10161000E7E0CE2ED12CCA1ADB0AD601EA81FB8183
:1016200033962C0102C0440C551CEA95E2F7F201F6
:10163000A758BD4F1B96FC911B97FE2B1B96FC9346
:101640001B975696FC915697FE2B5696FC93FA01E3
:10165000E61BF70BB9016E5F7F4F3C0102C0660CC1
:10166000771C6A95E2F7B30125C0F7E06F2E712C65
:101670006A1A7B0AD301A758BD4FEA81FB813396D2
:101680006C0102C0CC0CDD1CEA95E2F7F60156961F
:10169000FC915697FE2B5696FC93FA01E61BF70B2E
:1016A000B9016E5F7F4FDC0102C0AA0FBB1F6A95B4
:1016B000E2F7BD01E758FD4F7689D384A1A1A62B9F
:1016C000A1A3DC01022E01C0AA0F0A94EAF7B0819F
:1016D000BA2BB0832F5F3F4F2C0102C0440C551C26
:1016E0002A95E2F7D62AD428D386762B7A2B768BC6
:1016F0009AC4E7E06E2E712C6A1A7B0AD301EA8144
:10170000FB8133966C0102C0CC0CDD1CEA95E2F73C
:10171000F601A758BD4F1B96FC911B97FE2B1B96FD
:10172000FC931B975696FC915697FE2B5696FC936E
:10173000FA01E61BF70BE758FD4FA689B9016F5F69
:101740007F4F6C01062E01C0CC0C0A94EAF7B385DA
:101750006F5F7F4F2C0102C0440C551C6A95E2F765
:10176000B201A4293C0102C0660C771C2A95E2F75D
:10177000A629A68BBC29B429B38752C4FA01E61B5B
:10178000F70BDC01022E01C0AA0F0A94EAF7E75812
:10179000FD4FB385BA2BB9016F5F7F4F6C0102C05B
:1017A000CC0CDD1C6A95E2F7B60171A1762BD080D6
:1017B000DA2AD0822E5F3F4F2C0102C0440C551C08
:1017C0002A95E2F79201742971A33689322B368B60
:1017D000B62B61C0F7E06F2E712C6A1A7B0AD30119
:1017E000EA81FB8133966C0102C0CC0CDD1CEA95CA
:1017F000E2F7F601A758BD4F1B96FC911B97FE2BF5
:101800001B96FC931B975696FC915697FE2B56966B
:10181000FC93FA01E61BF70BE758FD4FBC01022EC3
:1018200001C0660F0A94EAF77081762B70832E5FF1
:101830003F4FBC0102C0660F771F2A95E2F79B015C
:1018400073C0FA01E61BF70BDC01022E01C0AA0FE0
:101850000A94EAF7E758FD4FB385B9016F5F7F4FF0
:101860002C0102C0440C551C6A95E2F7B20171A12B
:10187000762B60816A2B60832E5F3F4F3C0102C054
:10188000660C771C2A95E2F79301762971A33689B5
:10189000322B368BBA2BB22BB387C5C3E7E0CE2EE3
:1018A000D12CCA1ADB0AD601EA81FB8133962C01BE
:1018B00002C0440C551CEA95E2F7F201A758BD4F4F
:1018C0001B96FC911B97FE2B1B96FC931B97569621
:1018D000FC915697FE2B5696FC93FA01E61BF70BEC
:1018E000DC01022E01C0AA0F0A94EAF7E758FD4F67
:1018F00060816A2B6083B9016F5F7F4F3C0102C03A
:10190000660C771C6A95E2F7B3017385762B7387B3
:1019100066896A2B668B2E5F3F4F6C0102C0CC0C30
:10192000DD1C2A95E2F7960131A1322B31A37BC34E
:10193000E7E0F0E0EA1BFB0BDF01EA81FB81339675
:101940002C0102C0440C551CEA95E2F7F201A7589D
:10195000BD4F1B96FC911B97FE2B1B96FC931B9770
:101960005696FC915697FE2B5696FC93FA01E61B71
:10197000F70BE758FD4FB9016F5F7F4F3C0102C085
:10198000660C771C6A95E2F7B3017385762B738733
:10199000BC01022E01C0660F0A94EAF77689762B05
:1019A000768BB9CFE7E0F0E0EA1BFB0BDF01EA81C1
:1019B000FB8133962C0102C0440C551CEA95E2F7DA
:1019C000F201A758BD4F1B96FC911B97FE2B1B964F
:1019D000FC931B975696FC915697FE2B5696FC93BC
:1019E000FA01E61BF70BB9016E5F7F4F3C0102C0A5
:1019F000660C771C6A95E2F7E758FD4FB385B62968
:101A0000A689A629B9016F5F7F4F6C0102C0CC0C7B
:101A1000DD1C6A95E2F7BC29B38777C1FA01E61BA2
:101A2000F70BE758FD4FBC01022E01C0660F0A9468
:101A3000EAF77385762B73872F5F3F4FDC0102C077
:101A4000AA0FBB1F2A95E2F79D016ECFE7E0F0E0F9
:101A5000EA1BFB0BDF01EA81FB8133966C0101C0BD
:101A6000CC0CEA95EAF7A758BD4F5696EC915697DD
:101A7000EC295696EC935697FA01E61BF70BE758BC
:101A8000FD4FD6881B966C911B976C291B966C9307
:101A9000B9016F5F7F4F2C0102C0440C551C6A9541
:101AA000E2F7B201D4283C0102C0660C771C2A95EB
:101AB000E2F7D628D68A79C1F7E0CF2ED12CCA1A00
:101AC000DB0AD601EA81FB8133962C0102C0440C6B
:101AD000551CEA95E2F7A758BD4F1B963C911B9702
:101AE00034291B963C931B9756963C915697342964
:101AF00056963C93FA01E61BF70BE758FD4F3C0165
:101B000002C0660C771C2A95E2F7930137C2E7E022
:101B1000CE2ED12CCA1ADB0AD601EA81FB8133967C
:101B20002C0102C0440C551CEA95E2F7F201A758BB
:101B3000BD4F1B96FC911B97FE2B1B96FC931B978E
:101B40005696FC915697FE2B5696FC93FA01E61B8F
:101B5000F70BE758FD4FBC01022E01C0660F0A9437
:101B6000EAF771A1762B71A3B9016E5F7F4F3C013B
:101B700002C0660C771C6A95E2F72F5F3F4F6C013D
:101B800002C0CC0CDD1C2A95E2F796013689322B77
:101B90003629368B23852629238745C2E7E0F0E0E6
:101BA000EA1BFB0BDF01EA81FB8133962C0102C0AB
:101BB000440C551CEA95E2F7F201A758BD4F1B965D
:101BC000FC911B97FE2B1B96FC931B975696FC9142
:101BD0005697FE2B5696FC93FA01E61BF70BE75837
:101BE000FD4FBC01022E01C0660F0A94EAF771A1F5
:101BF000762B71A3B9016F5F7F4F3C0102C0660C69
:101C0000771C6A95E2F7B3017081762B70832E5FA3
:101C10003F4F6C0102C0CC0CDD1C2A95E2F7960107
:101C2000F0CCE7E0F0E0EA1BFB0BDF01EA81FB818F
:101C300033962C0102C0440C551CEA95E2F7F201E0
:101C4000A758BD4F1B96FC911B97FE2B1B96FC9330
:101C50001B975696FC915697FE2B5696FC93FA01CD
:101C6000E61BF70BB9016E5F7F4F3C0102C0660CAB
:101C7000771C6A95E2F7E758FD4F36893629368B8F
:101C800033853629338731A1362931A370C1E7E086
:101C9000F0E0EA1BFB0BDF01EA81FB8133962C01AC
:101CA00002C0440C551CEA95E2F7F201A758BD4F5B
:101CB0001B96FC911B97FE2B1B96FC931B9756962D
:101CC000FC915697FE2B5696FC93FA01E61BF70BF8
:101CD000B9016E5F7F4F3C0102C0660C771C6A95AC
:101CE000E2F7B301E758FD4F71A1762B71A3A689E6
:101CF000A62BB9016F5F7F4F6C0102C0CC0CDD1CBD
:101D00006A95E2F733853C293387BC0102C0660F30
:101D1000771F2A95E2F7A62BA68B85C1E7E0F0E0B6
:101D2000EA1BFB0BDF01EA81FB8133962C0102C029
:101D3000440C551CEA95E2F7F201A758BD4F1B96DB
:101D4000FC911B97FE2B1B96FC931B975696FC91C0
:101D50005697FE2B5696FC93FA01E61BF70BB9013A
:101D60006E5F7F4F3C0102C0660C771C6A95E2F7FC
:101D7000B301E758FD4F71A1762B71A3A689A62B5D
:101D8000B9016F5F7F4F6C0102C0CC0CDD1C6A95FE
:101D9000E2F7B60133853C2933872C0102C0440C9D
:101DA000551C2A95E2F7A429A68B2081262B208397
:101DB0003AC1F7E06F2E712C6A1A7B0AD301A7583B
:101DC000BD4FEA81FB8133966C0102C0CC0CDD1C57
:101DD000EA95E2F7F6015696FC915697FE2B569639
:101DE000FC93FA01E61BF70BDC01022E01C0AA0FDF
:101DF0000A94EAF7E758FD4F60816A2B6083B901C6
:101E00006F5F7F4F2C0102C0440C551C6A95E2F7AE
:101E1000B2017385B689BA2BB68B2E5F3F4F3C015A
:101E200002C0660C771C2A95E2F7930131A1322B90
:101E300031A3762B722B7387F6C0FA01E61BF70BE2
:101E4000E758FD4FBC01022E01C0660F0A94EAF765
:101E50007385762B7387B9016F5F7F4F6C0102C06A
:101E6000CC0CDD1C6A95E2F7B60171A1762B2E5FD2
:101E70003F4FDC0102C0AA0FBB1F2A95E2F77A2B65
:101E800071A3D1C0E7E0F0E0EA1BFB0BDF01EA81C0
:101E9000FB8133966C0101C0CC0CEA95EAF7A75898
:101EA000BD4F1B96EC911B97EC291B96EC931B974F
:101EB0005696EC915697EC295696EC935697FA0164
:101EC000E61BF70BB9016E5F7F4F2C0102C0440C7B
:101ED000551C6A95E2F7B201E758FD4F7689762BDB
:101EE000768B7385762B73872F5F3F4F3C0102C043
:101EF000660C771C2A95E2F793013081322B3083F0
:101F00002C912C292C938FC0E7E0CE2ED12CCA1A0D
:101F1000DB0AD601EA81FB8133962C0102C0440C16
:101F2000551CEA95E2F7F201A758BD4F1B96FC91AC
:101F30001B97FE2B1B96FC931B975696FC9156976E
:101F4000FE2B5696FC93FA01E61BF70BB9016E5F68
:101F50007F4F3C0102C0660C771C6A95E2F7E75898
:101F6000FD4F36893629368B3385362933876C0108
:101F700002C0CC0CDD1C2A95E2F796013081322B91
:101F8000308351C0E7E0F0E0EA1BFB0BDF01EA81A0
:101F9000FB8133962C0102C0440C551CEA95E2F7F4
:101FA000F201A758BD4F1B96FC911B97FE2B1B9669
:101FB000FC931B975696FC915697FE2B5696FC93D6
:101FC0005697FC91FE2BFC93FA01E61BF70BE758A2
:101FD000FD4F2F5F3F4F3C0102C0660C771C2A95D6
:101FE000E2F793013689322B368B1DC0FA01E61BCE
:101FF000F70BBC01022E01C0660F0A94EAF7E758FE
:10200000FD4F7385762B73872F5F3F4F6C0102C0A6
:10201000CC0CDD1C2A95E2F796013689322B368BE3
:1020200021A1262B21A32FEFE21AF20AEEC80150BC
:1020300011098016910689F42814390471F410925C
:10204000E7011092E6018FEF9FEF9093E5018093F7
:10205000E4011092E3011092E2010F900F900F90B3
:10206000DF91CF911F910F91FF90EF90DF90CF9074
:10207000BF90AF909F908F907F906F905F904F90A8
:102080003F902F9008956AE471E088E693E00E9403
:10209000032763E088E292E00E94D52020E048E038
:1020A00069E089E092E00E94592320E041E160E08C
:1020B0008AEE91E00C9459230C9485011F93CF93E1
:1020C000DF9300D0CDB7DEB7182F7A836983682FEE
:1020D0008AEE91E00E94C221612F8AEE91E00E9477
:1020E000C22169818AEE91E00E94C2216A818AEE52
:1020F00091E00E94C2210F900F90DF91CF911F912C
:102100000895EF92FF920F931F93CF93DF93CDB774
:10211000DEB72A970FB6F894DEBF0FBECDBF8AE0B8
:10212000E1E1F1E0DE01119601900D928A95E1F76F
:1021300064E0CE0101960E94A00390E09A8789870F
:102140008E010F5F1F4F7E018BE0E80EF11CF8013E
:1021500060810E5F1F4F89E092E00E94C22165E01E
:1021600070E080E090E00E9413250E151F0579F7BE
:102170002A960FB6F894DEBF0FBECDBFDF91CF9188
:102180001F910F91FF90EF900895CF93C0E089E0E9
:1021900092E00E94A1218F3F2FEF920759F461E056
:1021A00070E080E090E00E941325CF5FCF3079F798
:1021B0008FEF9FEFCF910895FF920F931F93CF93CF
:1021C000DF9300D000D000D0CDB7DEB789E092E039
:1021D0000E94172461E088E00E94D92560E089E030
:1021E0000E94D92560E088E00E94122668EC70E029
:1021F00080E090E00E94132508E010E0FF24F394B3
:102200008F2D837311F061E001C060E088E00E94CF
:10221000122668EC70E080E090E00E941325FF0C2D
:102220000150110969F761E088E00E94122664E01C
:1022300071E080E090E00E94132540EA58E260E0FF
:1022400070E089E092E00E94892300E010E00E94A3
:10225000C510FE013196E10FF11DE10FF11D9183D3
:102260008083019641F01F5F6AE070E080E090E0BB
:102270000E94132501C00F5F073410F4133038F3A8
:1022800089819A818535910539F014E0880F991F6D
:102290001A95E1F705963DC08B819C8188309105A8
:1022A00039F0B4E0880F991FBA95E1F7029631C072
:1022B0008D819E818830910539F0A4E0880F991FA7
:1022C000AA95E1F7039625C069E170E080E090E00F
:1022D0000E94132567EF89E092E00E94C22189E005
:1022E00092E00E94142269E170E080E090E00E9498
:1022F00013250E94C5108C3C910549F464E670E0FA
:1023000080E090E00E94132581E090E002C087E029
:1023100090E026960FB6F894DEBF0FBECDBFDF91DA
:10232000CF911F910F91FF900895BF92CF92DF92AE
:10233000EF92FF920F931F93CF93DF93CDB7DEB74A
:10234000A0970FB6F894DEBF0FBECDBF8CE0E7E2DA
:10235000F1E0DE01559601900D928A95E1F77E013C
:1023600085E1E80EF11C65E0C7010E94A00390E042
:1023700098A38F8F1C8A1B8A95E0B92E6E01E1E22B
:10238000CE0ED11C8701F80160810E5F1F4F89E0DE
:1023900092E00E94C22165E070E080E090E00E943F
:1023A00013250C151D0579F764E170E080E090E0DD
:1023B0000E9413258E010F5F1F4F0E94C510F80168
:1023C000819391938F01EE15FF05B9F70B891C8955
:1023D00069E0CE0101960E94A00390E0081719075A
:1023E00029F0BA9479F68FEF9FEF0AC02B853C85D0
:1023F000C9018078992727FF03C0C9018F779927E2
:10240000A0960FB6F894DEBF0FBECDBFDF91CF917F
:102410001F910F91FF90EF90DF90CF90BF900895A4
:102420007F928F929F92AF92BF92CF92DF92EF9264
:10243000FF920F931F93CF93DF93CDB7DEB7E29751
:102440000FB6F894DEBF0FBECDBF5C014B016AE44E
:1024500071E0CE018D960E9403278AE0E3E3F1E06C
:10246000DE01579601900D928A95E1F76E0187E1A2
:10247000C80ED11C64E0C6010E94A00390E098A39E
:102480008F8F1E8A1D8A45E0742E8E010F5D1F4FAF
:102490007601F7016081F2E0EF0EF11C89E092E035
:1024A0000E94C22165E070E080E090E00E94132568
:1024B000E016F10671F764E170E080E090E00E94C0
:1024C0001325CE0101967C010E94C510F70181936E
:1024D00091937F01EC15FD05B9F7E988FA8868E06A
:1024E000CE0101960E94A00390E0E816F90611F0D3
:1024F0007A9471F6ED88FE886AE0CE0101960E941A
:10250000A00390E0E816F90609F065C01814190454
:102510000CF05AC069857A85CB01807F9927892B79
:1025200011F5762F66278B859C85680F791F40E112
:10253000CE0187960E9493276EE371E0C8010E9446
:102540000327BE01695D7F4FC8010E94EB27BC01D4
:10255000CE018D960E944F27C8010E949526CE017C
:1025600087960E949526F2E08F16910469F56D8595
:102570007E85CB01807F9927892B31F5762F6627C1
:102580008F859889680F791F40E1C8010E949327C1
:10259000BE01635D7F4FCE0187960E9466276DE383
:1025A00071E0CE0187960E94FE27B8010E94EB27BA
:1025B000BC01CE018D960E944F27CE0187960E94C6
:1025C0009526C8010E949526BE01635D7F4FC50117
:1025D0000E9470261CC040E1B701CE0187960E9480
:1025E000932761E471E0C8010E940327BE01695D81
:1025F0007F4FC8010E94EB27BC01C5010E946627DE
:10260000C8010E949526CE0187960E949526CE018C
:102610008D960E949526C501E2960FB6F894DEBF0E
:102620000FBECDBFDF91CF911F910F91FF90EF9023
:10263000DF90CF90BF90AF909F908F907F90089544
:10264000CF93DF9389E092E00E94172461E088E055
:102650000E94D92560E089E00E94D92561E088E0E8
:102660000E9412266CE271E080E090E00E94132547
:1026700060E088E00E94122668EC70E080E090E064
:102680000E94132560E088E00E94122660E476E054
:1026900080E090E00E94132561E088E00E9412260D
:1026A00068EC70E080E090E00E94132549E05DE373
:1026B00060E070E089E092E00E94892368E770E0C2
:1026C00080E090E00E9413250E94C510D82F0E9440
:1026D000C510C82F0E94C5109C01D53529F08D2F3B
:1026E00090E088519C4F10C0CF3E29F08C2F90E095
:1026F0008053984F09C0853829F0C901992788541B
:10270000944F02C081E090E0DF91CF910895FF9255
:102710000F931F93CF93DF9365E0F62E69E289E074
:1027200092E00E94C22189E092E00E9414220E945D
:10273000C510EC016AE289E092E00E94C22189E0C2
:1027400092E00E9414220E94C5108C01FA9409F1B3
:10275000CF3F8FEFD80711F30F3F8FEF1807F1F23C
:10276000CE01AA2797FDA095BA2F6627782F892F2B
:102770009A2F222717FD2095322F600F711F821F7D
:10278000931F2AE030E040E050E00E94AD28C901EC
:102790000AC00F3F8FEF180721F0CF3F8FEFD80708
:1027A000F9F680E090E0DF91CF911F910F91FF90BB
:1027B0000895CF93C5E060E189E092E00E94C221D4
:1027C00089E092E00E9414220E94C5109C012852C8
:1027D0003109C15059F02F3F8FEF380761F34AE0BC
:1027E000429FC001439F900D112406C02F3F8FEFE1
:1027F0003807A9F78FEF9FEFCF910895CF93C5E0EA
:102800006FE289E092E00E94C22189E092E00E949A
:1028100014220E94C510C15059F08F3F2FEF92072C
:1028200079F344E1489F9001499F300D112406C07F
:102830008F3F2FEF9207A9F72CE93FEFC901CF9106
:102840000895CF93C3E06CE189E092E00E94C22139
:1028500089E092E00E9414220E94C510C15029F024
:102860008F3F2FEF920779F306C08F3F2FEF92072C
:1028700011F48CE99FEFCF910895CF93C5E061E209
:1028800089E092E00E94C22189E092E00E94142235
:102890000E94C5108F3F2FEF920729F4C15079F79E
:1028A00080E090E00CC025E33CE0DC010E94E128E0
:1028B0002AE030E040E050E00E94AD28C901CF910D
:1028C0000895CF93C5E06CE089E092E00E94C221B8
:1028D00089E092E00E9414220E94C5108F3F2FEFE2
:1028E000920729F4C15079F780E090E010C024EC01
:1028F00030E0DC010E94E128685A714681099109A3
:102900002AE030E040E050E00E94AD28C901CF91BC
:102910000895CF93C5E064E189E092E00E94C2216E
:1029200089E092E00E9414220E94C5108F3F2FEF91
:10293000920729F4C15079F780E090E00CC025EAB5
:102940003CE1DC010E94E12828EE33E040E050E069
:102950000E94AD28C901CF9108954F925F926F9266
:102960007F928F929F92AF92BF92CF92DF92EF921F
:10297000FF920F931F93CF93DF93CDB7DEB72C97C2
:102980000FB6F894DEBF0FBECDBF0E94E424609363
:102990002D0370932E0380932F0390933003809127
:1029A0006E038823F1F180917B03883069F5809173
:1029B0008603803149F580919103803229F5809119
:1029C0009C03803409F54DE452E020E030E0ABE0B8
:1029D00080E090E0A29FB001A39F700D1124FB0145
:1029E000E80FF91FEF58FC4FB081FA01E80FF91F0B
:1029F000B08301968B30910591F72F5F3F4F455F74
:102A00005F4F2430310521F71092700310926F034D
:102A100010926E0342E050E061E871E080E00E94B5
:102A20001A2481E08093650380E090E020E030E0AC
:102A3000BC0167587D4FAC01435B5D4FFB01E20F6A
:102A4000F31FDA01A20FB31FAC91A0832F5F3F4F9A
:102A50002B30310599F70B968C32910539F780E0D0
:102A60000E9493258C018091550390915603800F0D
:102A7000911F909356038093550360915D0370916D
:102A80005E036F5F7F4F70935E0360935D036233FD
:102A9000710529F50E9477287093580360935703B6
:102AA000109256031092550310925E0310925D032C
:102AB0002CE831E0DB010E94E1286093D1027093A1
:102AC000D2028093D3029093D40224E630E040E017
:102AD00050E00E948B2830934A0320934903000F53
:102AE000111F000F111F109354030093530386E529
:102AF00093E10E9482039C018536910508F455C13B
:102B00006091D9027091DA028091DB029091DC022F
:102B1000620F731F811D911D6093D9027093DA02B9
:102B20008093DB029093DC022091330330913403D5
:102B30002F5F3F4F309334032093330320313742CC
:102B4000C9F421E02093610320E137E240E050E046
:102B50000E948B2830935203209351031092D90284
:102B60001092DA021092DB021092DC02109234030F
:102B7000109233038091610381111BC020913303B4
:102B800030913403C90164E670E00E946328892B08
:102B900081F440E050E06091D9027091DA028091B6
:102BA000DB029091DC020E948B2830935203209329
:102BB00051032AE73DE08091510390915203281B75
:102BC000390B4AE0429FC001439F900D112463E0FE
:102BD00070E00E9477287093500360934F038091B8
:102BE0006403811138C180914C02882309F433C1F8
:102BF000893009F430C160E082E10E9412268FEF33
:102C00009FEF9093070180930601809166038111E5
:102C100019C081E08093660380912D0390912E036B
:102C2000A0912F03B091300380930103909302038E
:102C3000A0930303B093040380E797E190935A03B2
:102C40008093590385E180934C02809159039091C0
:102C50005A03019759F481E08093640380914B02F9
:102C600080934C0210925A0310925903809164038E
:102C70008111F1C080912D0390912E03A0912F031B
:102C8000B09130034091010350910203609103031E
:102C900070910403841B950BA60BB70B409159034D
:102CA00050915A034053584F662757FD6095762F31
:102CB000481759076A077B0740F50E942013909335
:102CC0005C0380935B038130910529F490935A0350
:102CD000809359031AC089E092E00E94172480E48F
:102CE0009FE190935A038093590380912D03909113
:102CF0002E03A0912F03B091300380930103909392
:102D00000203A0930303B093040380912D039091D9
:102D10002E03A0912F03B0913003409101035091F5
:102D200002036091030370910403841B950BA60BAF
:102D3000B70B2091590330915A03A901662757FD1B
:102D40006095762F481759076A077B0750F460E0B3
:102D50002130310519F48BE491E00BC083E591E05B
:102D600008C0813A9F40A105B10530F060E08CE5D4
:102D700091E00E9452086FC020343F4109F06BC0BF
:102D800064E084E691E00E94520880915B03909198
:102D90005C034AE0489F9001499F300D112440E0B8
:102DA00060E081E00E94CF0456C01092640310924C
:102DB0005A031092590380912D0390912E03A091F4
:102DC0002F03B09130038093010390930203A093EB
:102DD0000303B09304031092400310923F03109238
:102DE000660380915F038823B1F14091D502509131
:102DF000D6026091D7027091D802403E83E958070D
:102E000084E068077105C8F48091090390910A0372
:102E1000A0910B03B0910C03840F951FA61FB71F41
:102E20008093D5029093D602A093D702B093D80294
:102E300061E083E10E9412260EC060E083E10E94FF
:102E4000122610925F031092D5021092D6021092B1
:102E5000D7021092D80280916403882309F475C2C6
:102E6000809192028E7F8093920210927B02109248
:102E700086021092910210929C021092800288E0C9
:102E80008093830280E180938E0280E28093990296
:102E900080E48093A4020E9421140E94AB030E944C
:102EA0003D149093400380933F030E9487139093B7
:102EB0003203809331039C01A3E3B0E00E94D22847
:102EC0008B019C0180913F0390914003FAE08F2E8B
:102ED000912CB4010E946328DB01A90198010E9492
:102EE000E82820EA36E841E050E00E94AD2830931F
:102EF0003803209337030E94FE139093420380937C
:102F000041030E94F02460930D0370930E0380939D
:102F10000F03909310030091F1021091F20220919F
:102F2000F3023091F4026B017C01C01AD10AE20A6B
:102F3000F30AC0920903D0920A03E0920B03F092C5
:102F40000C036093F1027093F2028093F30290936A
:102F5000F4020091410310914203C114D104E10431
:102F6000F10409F474C017FD72C08091430390917D
:102F70004403B4010E947728FB01C801B4010E94F8
:102F80007728E60FF71F2BE830E0DF010E94E128E9
:102F90009B01AC01C701B6010E945328E4E64E2E06
:102FA000512C612C712CA30192010E948B288091DD
:102FB000FD029091FE02A091FF02B0910003820FEA
:102FC000931FA41FB51F8093FD029093FE02A09350
:102FD000FF02B09300031093440300934303A090B7
:102FE0003703B0903803C501B4010E9463289B01E8
:102FF0008091390390913A03B4010E946328260F0F
:10300000371F8BE8829FD001839FB00D1124A70149
:1030100096010E94E828A30192010E948B288091CA
:10302000ED029091EE02A091EF02B091F002820FBA
:10303000931FA41FB51F8093ED029093EE02A093FF
:10304000EF02B093F002B0923A03A092390317FF57
:1030500031C080914A0291E0980F90934A028630E5
:1030600058F11092640380912D0390912E03A0914A
:103070002F03B09130038093010390930203A09338
:103080000303B093040310924A0210924203109279
:103090004103109244031092430310924003109294
:1030A0003F0310923A0310923903109238031092A2
:1030B000370302C010924A028091FD029091FE02F5
:1030C000A091FF02B091000381159A4CAA49BB431D
:1030D00070F18091F9029091FA02A091FB02B091F7
:1030E000FC020196A11DB11D8093F9029093FA0292
:1030F000A093FB02B093FC028091F5029091F6023E
:10310000A091F702B091F8020196A11DB11D809324
:10311000F5029093F602A093F702B093F802109292
:10312000FD021092FE021092FF02109200038091A5
:10313000ED029091EE02A091EF02B091F0028115A4
:103140009A4CAA49BB4308F461C02091E90230912E
:10315000EA024091EB025091EC022F5F3F4F4F4F3C
:103160005F4F2093E9023093EA024093EB025093C1
:10317000EC028091E5029091E602A091E702B09105
:10318000E8020196A11DB11D8093E5029093E6022D
:10319000A093E702B093E8021092ED021092EE02C3
:1031A0001092EF021092F0028091E1029091E202FF
:1031B000A091E302B091E402281739074A075B07A0
:1031C00029F18090F9029090FA02A090FB02B09051
:1031D000FC0281149104A104B104C1F02093E10226
:1031E0003093E2024093E3025093E402A8EEB3E08E
:1031F0000E94E828A50194010E948B282093DD02FB
:103200003093DE024093DF025093E00280915F032F
:10321000811139C08091410390914203823D910513
:103220001CF081E08093600380916003882359F152
:103230008091D5029091D602A091D702B091D80288
:10324000803E23E9920724E0A207B10570F4C80E7E
:10325000D91EEA1EFB1EC092D502D092D602E09281
:10326000D702F092D802419A0EC0419881E0809333
:103270005F031092D5021092D6021092D7021092DC
:10328000D8021092600380912D0390912E03A0919B
:103290002F03B0913003409121035091220360919C
:1032A0002303709124037C018D01E41AF50A060BB7
:1032B000170BB801A7014C3251406105710580F030
:1032C0008093210390932203A0932303B0932403BC
:1032D0008091DD029091DE0290933C0380933B034A
:1032E00080E880939C0280E48093800260913B039D
:1032F00070913C0381E00E94E7060E94D9139093ED
:10330000480380934703209162038A35910594F422
:1033100086361EEF910771F021110CC080914C028E
:103320008451823090F086E080934C0281E080935B
:1033300062030BC0222349F08A35910534F0809155
:103340004B0280934C02109262034C9922C08091F0
:10335000670381111EC080912D0390912E03A091CF
:103360002F03B09130034091190350911A036091DB
:103370001B0370911C037C018D01E41AF50A060BF6
:10338000170BB801A701453651056105710508F015
:10339000C0C5809109018823B9F14C9B35C080914B
:1033A0006703882389F180912D0390912E03A091CA
:1033B0002F03B09130034091190350911A0360918B
:1033C0001B0370911C038C019D01041B150B260B24
:1033D000370BB901A8014D32514061057105A0F0CC
:1033E00020914C022F5F2A3008F4A7C510924C029E
:1033F0001092670310920B0180931D0390931E039C
:10340000A0931F03B093200380914C020E941304E9
:1034100080914C0290E08A30910508F0AAC4FC012A
:10342000E256FF4F0C94CC2880916703882309F45F
:10343000A0C480912D0390912E03A0912F03B091F1
:10344000300340911503509116036091170370915A
:1034500018037C018D01E41AF50A060B170BB8015D
:10346000A701493B5B406105710508F482C4809364
:10347000190390931A03A0931B03B0931C0310929B
:1034800009014C9B76C4109267031092640361E0BB
:1034900082E10E94122681E0809309016AC4809132
:1034A0002D0390912E03A0912F03B09130034091F2
:1034B000290350912A0360912B0370912C03841BE4
:1034C000950BA60BB70B883E9340A105B10508F4F8
:1034D0003FC00E94850490934C0380934B0340911E
:1034E0002D0350912E0360912F0370913003409370
:1034F000290350932A0360932B0370932C0397FFA7
:1035000003C010920A0103C021E020930A01209118
:103510000A01211107C091958195910990934C035F
:1035200080934B0380914B0390914C0346E0489F5E
:103530009001499F300D112497FD0396959587952D
:1035400095958795820F931F90934C0380934B031F
:1035500020914B0330914C0341E061E080910A01DE
:103560000E94CF0464E08CE991E044C080912D0377
:1035700090912E03A0912F03B09130034091250329
:10358000509126036091270370912803841B950BAB
:10359000A60BB70B8C329140A105B105F8F08091D4
:1035A0006403882319F00E94891404C080914903A0
:1035B00090914A0390933E0380933D0380912D03A5
:1035C00090912E03A0912F03B09130038093250397
:1035D00090932603A0932703B093280320913D03E3
:1035E00030913E0341E061E081E00E94CF0464E05D
:1035F00089E691E00E945208BCC320916703809144
:103600002D0390912E03A0912F03B091300322231C
:1036100071F1409115035091160360911703709159
:1036200018037C018D01E41AF50A060B170BB8018B
:10363000A701493B5B4061057105C8F08093190300
:1036400090931A03A0931B03B0931C0310920901DB
:103650004C9B05C01092670321E020930901109252
:10366000F5021092F6021092F7021092F8024091C1
:1036700025035091260360912703709128037C0154
:103680008D01E41AF50A060B170BB801A7014C329D
:10369000514061057105B0F0809325039093260396
:1036A000A0932703B09328032091F5023091F602EE
:1036B0004AE0429FC001439F900D112490933E0326
:1036C00080933D0320913D0330913E0340E061E053
:1036D00081E00E94CF0465E08EE691E08BCF2091DF
:1036E000670380912D0390912E03A0912F03B09139
:1036F0003003222371F1409115035091160360911C
:103700001703709118037C018D01E41AF50A060B6A
:10371000170BB801A701493B5B4061057105C8F073
:103720008093190390931A03A0931B03B0931C0377
:10373000109209014C9B05C01092670321E0209371
:1037400009011092E5021092E6021092E70210922F
:10375000E802409125035091260360912703709160
:1037600028037C018D01E41AF50A060B170BB8013A
:10377000A7014C3251406105710580F0809325030B
:1037800090932603A0932703B09328038091E5022A
:103790009091E60290933E0380933D0320913D0378
:1037A00030913E0340E061E081E00E94CF0464E09C
:1037B00082E791E01FCF80916703882309F446C018
:1037C00080912D0390912E03A0912F03B09130038F
:1037D00040911503509116036091170370911803DF
:1037E0007C018D01E41AF50A060B170BB801A7013D
:1037F000493B5B406105710548F180931903909343
:103800001A03A0931B03B0931C03109209014C9B55
:1038100005C01092670381E0809309011092E902CC
:103820001092EA021092EB021092EC021092F9024E
:103830001092FA021092FB021092FC021092DD022A
:103840001092DE021092DF021092E00240914103DA
:103850005091420320913703309138034C33510586
:10386000E4F0A4E6B0E00E94D2286B017C01CA011A
:103870006AE070E00E9477289B01442737FD40955D
:10388000542FC701B6010E94AD2830933603209310
:10389000350364E08BE891E007C030933603209352
:1038A000350364E080E991E00E94520880912D0385
:1038B00090912E03A0912F03B091300340912503E6
:1038C0005091260360912703709128037C018D019C
:1038D000E41AF50A060B170BB801A7014C32514048
:1038E0006105710580F08093250390932603A093D2
:1038F0002703B0932803809135039091360390936A
:103900003E0380933D0320913D0330913E0341E00F
:1039100061E081E0CCC080916403882309F44AC04F
:1039200080912D0390912E03A0912F03B09130032D
:10393000409125035091260360912703709128033D
:103940007C018D01E41AF50A060B170BB801A701DB
:103950004C3251406105710518F1209147033091B7
:10396000480337FF0AC03195219531093093480348
:103970002093470310920A0103C021E020930A011B
:103980008093250390932603A0932703B0932803E5
:10399000809147039091480390933E0380933D03A9
:1039A00020913D0330913E0341E060E080910A01A7
:1039B0000E94CF0463E084E991E01CCE809164030F
:1039C0008823B1F180912D0390912E03A0912F03B4
:1039D000B091300340912503509126036091270355
:1039E000709128037C018D01E41AF50A060B170B70
:1039F000B801A7014C3251406105710580F08093F8
:103A0000250390932603A0932703B0932803809166
:103A10003F039091400390933E0380933D03209198
:103A20003D0330913E0341E060E081E00E94CF041D
:103A300065E081EA91E0DECD64E085EA91E00E94F4
:103A4000520880916403882309F493C180912D0367
:103A500090912E03A0912F03B09130038093250302
:103A600090932603A0932703B09328030E94611428
:103A7000909346038093450397FF0AC091958195E3
:103A80009109909346038093450310920A0103C065
:103A900081E080930A0120914503309146033093E1
:103AA0003E0320933D0341E061E080910A010E94C2
:103AB000CF045FC180912D0390912E03A0912F031D
:103AC000B0913003409111035091120360911303A0
:103AD000709114037C018D01E41AF50A060B170B93
:103AE000B801A7014131574261057105A0F020914D
:103AF000060130910701232B71F4809311039093F9
:103B00001203A0931303B09314030E94DC1090934C
:103B100007018093060120916403211123C0809145
:103B20002D0390912E03A0912F03B091300340916B
:103B30001503509116036091170370911803841BAD
:103B4000950BA60BB70B81319742A105B10550F03B
:103B50008091060190910701039621F410920701CC
:103B60001092060180916703882309F453C0809165
:103B70002D0390912E03A0912F03B091300340911B
:103B800015035091160360911703709118037C017F
:103B90008D01E41AF50A060B170BB801A701493B82
:103BA0005B4061057105B0F18093190390931A038E
:103BB000A0931B03B0931C03109209018EEF9FEF9B
:103BC00090930701809306014C9B24C08DEF9FEFDB
:103BD000909307018093060181E080930901109280
:103BE00063031092670380914D0390914E03181662
:103BF000190674F421110CC00E94811010924E031A
:103C000010924D0381E090E09093070180930601AC
:103C1000109264038091060190910701019629F4A6
:103C200060E08AEA91E00E9452088091060190913A
:103C300007010396029728F460E083EB91E00E946D
:103C400052088091060190910701892B29F460E0C8
:103C500088EB91E00E945208809106019091070143
:103C6000019709F066C080912D0390912E03A091D9
:103C70002F03B091300340911103509112036091D2
:103C8000130370911403841B950BA60BB70B893B90
:103C90009B40A105B10508F447C0809163038111E1
:103CA00034C00E94951190934E0380934D0321E000
:103CB000209363031816190684F4BC01CE01019603
:103CC0000E941012BE016F5F7F4F88E693E00E9452
:103CD0006F27CE0101960E94952680914D03909109
:103CE0004E03892B31F461EC71E088E693E00E9489
:103CF0007B2780914D0390914E03019631F468EC3F
:103D000071E088E693E00E947B2720E030E046E007
:103D100050E0BE016F5F7F4F88E693E00E94182855
:103D200060E0CE01019603C060E08BE491E00E9468
:103D30005208609106017091070162307105CCF064
:103D400040E1CE0107960E94932720E030E046E054
:103D500050E0BE016F5F7F4FCE0107960E9418288A
:103D600060E0CE0101960E945208CE0107960E94A3
:103D7000952680912D0390912E03A0912F03B09151
:103D8000300340911D0350911E0360911F037091F9
:103D90002003841B950BA60BB70B80339547A10519
:103DA000B10578F080910B0181110BC060914C023C
:103DB0001A821982CE0101960E94BE0181E0809391
:103DC0000B0180913F039091400389350BE19007EF
:103DD00018F01092080135C0892B99F580910801DF
:103DE00081112FC010925F0381E08093080189E068
:103DF00090E09A83898361E0CE0101960E94BE0122
:103E00008AE090E09A83898360E0CE0101960E9467
:103E1000BE0169EE72E081E090E00E94DE0169EF90
:103E200072E085E090E00E94DE0165EE72E08AE0DB
:103E300090E00E94DE0165EF72E08EE090E00E946B
:103E4000DE016091650325EA32E049E752E080E057
:103E500090E0F901E80FF91FDA01A80FB91F7C9172
:103E6000A081A71711F0708361E001968B30910556
:103E700081F7255F3F4F455F5F4F12E0213D3107DE
:103E800031F760936503662331F085EA92E00E9482
:103E9000780210926503609131037091320389E2D8
:103EA0000E945E1080913F03909140030AE010E071
:103EB000B8010E94632881E20E945E108091410354
:103EC00090914203B8010E9477288FE20E945E1011
:103ED0008091470390914803B8010E94772880E1C0
:103EE0000E945E102C960FB6F894DEBF0FBECDBFB9
:103EF000DF91CF911F910F91FF90EF90DF90CF90C6
:103F0000BF90AF909F908F907F906F905F904F90F9
:103F100008958093150390931603A0931703B0930D
:103F2000180321E0209367038093190390931A03E9
:103F3000A0931B03B0931C032CCA20934C0258CAB5
:103F4000FF920F931F93CF93DF93FC010081C181F8
:103F5000D281F8948981F02EF0948F21898378940E
:103F60001DE7115029F182E090E00E944D258881E3
:103F70008023B9F3F8948A818F218A838981802BE9
:103F80008983789480EE91E00E944D25F894898190
:103F90008F21898386E490E00E944D2588818023CB
:103FA00011E009F010E078948AE991E00E944D2533
:103FB000812FDF91CF911F910F91FF9008951F9353
:103FC000CF93DF93FC011081C181D281912F909515
:103FD00060FF12C0F8948A8189238A838981812BAA
:103FE00089838AE090E00E944D258A81812B8A8313
:103FF000789487E390E011C0F8948A8189238A83BA
:104000008981812B898381E490E00E944D258A81FA
:10401000812B8A83789485E090E0DF91CF911F9186
:104020000C944D250F931F93CF93DF93FC011081C8
:10403000C181D281F8948981812B89838A81012F62
:10404000009580238A8383E090E00E944D2589813A
:10405000802389838AE090E00E944D25C88178946E
:1040600085E390E00E944D251C2381E009F480E067
:10407000DF91CF911F910F910895CF92DF92EF9230
:10408000FF920F931F93CF93DF931F92CDB7DEB7AD
:104090006C01E62E08E010E0FF24F39461E09F2D10
:1040A0009E2109F460E0C60149830E94DF1FFF0CD6
:1040B0000150110949810115110581F7411115C000
:1040C000F894D6011196ED91FC91129791818C9103
:1040D0008095892381831196ED91FC9112979281AD
:1040E0008C9180958923828378940F90DF91CF9172
:1040F0001F910F91FF90EF90DF90CF900895EF9276
:10410000FF920F931F93CF93DF938C01C8E0D0E011
:10411000F12CEE24E394C8010E9412208111FE28A4
:10412000EE0C2197C1F78F2DDF91CF911F910F9149
:10413000FF90EF900895CF92DF92FF920F931F931D
:10414000CF93DF931F92CDB7DEB78C01F62E40E000
:1041500065E579830E943D20CF2C7981D72E88E0B8
:10416000F82EF60161916F0140E0C8010E943D20E8
:10417000FA94B9F70F90DF91CF911F910F91FF90B3
:10418000DF90CF900895FC0113861586148627E0F2
:1041900030E0DF01A20FB31F13961C9221153105E9
:1041A00019F021503109F5CF08951F93CF93DF9374
:1041B000EC01162F60E0812F0E94D925612F70E05D
:1041C000FB01EC59FD4FE491E883FB01E858FD4FFA
:1041D000E491F0E0EE0FFF1FE457FD4F85919491BD
:1041E0009A838983CE01DF91CF911F910C94C320D4
:1041F000AF92BF92CF92DF92EF92FF920F931F93F5
:10420000CF93DF931F92CDB7DEB75C01D62EE72E9A
:10421000FC018585811164C0C50149830E94A01FEE
:104220004981811105C0F50113861586148671C078
:10423000442319F040E060EF02C040E06CEEC5019D
:104240000E943D2001E0F12CC12C11E0C5010E942B
:104250001220682FC50169830E9412206981613094
:1042600019F48130B9F433C02F2D30E068131BC02E
:10427000F5018385181730F4E20FF31F8381802343
:1042800049F402C0181731F060E0193058F4F50114
:10429000148708C0F501EF0DF11D8381802B838306
:1042A00061E009C0C12EF501E20FF31F8381902F59
:1042B000909589238383C5010E94DF1F1F5F000F34
:1042C00011F4F39401E0F7E0FF1508F0BFCF1134CB
:1042D00038F0F501C386C11009C081E0858706C0AA
:1042E000F50113861586148680E013C0F5018381DD
:1042F0008823B1F3ED2DFE2D80E090E0D501A80FCD
:10430000B91F13962C912193019688309105B1F72E
:1043100081E00F90DF91CF911F910F91FF90EF906F
:10432000DF90CF90BF90AF900895DC0180E06150A6
:1043300038F0ED91E827F0E0E05BFE4F8491F7CF95
:1043400008952091DF033091E00328173907B9F46D
:1043500090919D0380919E03981789F0E0919D03B1
:10436000F0E0E156FC4F808120919D0330E02F5F0B
:104370003F4F2F73332720939D0390E008958FEFD5
:104380009FEF08951F93CF93DF93DC015C968D918F
:104390009C915D97009749F481E090E013969C937F
:1043A0008E93129780E090E03BC05196ED91FC9186
:1043B000529750962C915097322F30951FB75E969A
:1043C0004C915E9741FB772770F941FD6095F89419
:1043D0004081772311F0422B01C043234083EC013D
:1043E0002197F1F748E0508160FF02C0522B01C0D5
:1043F00053235083EC012197F1F76695415099F7CB
:104400008081772311F0832301C0822B80831FBF1B
:104410005C968D919C915D970197F1F781E090E01A
:10442000DF91CF911F91089508952091DF0330917E
:10443000E0032817390781F490919D0380919E0332
:10444000981751F0E0919D03F0E0E156FC4F808118
:10445000992787FD909508958FEF9FEF08952091FC
:10446000DF033091E0032817390771F480919E0330
:1044700020919D0390E0805C9F4F821B910960E436
:1044800070E00E947728089580E090E00895E09120
:10449000DF03F091E003E817F90769F4A389B48911
:1044A0009C918589809589238C931092E0031092CA
:1044B000DF0381E0089580E00895CF93DF93EC015E
:1044C0008A8D9B8D892BF1F08091DF039091E00321
:1044D0008C179D07B9F0009711F00E9447228E8D2E
:1044E0008E7F8E8F10929E0310929D03D093E003D7
:1044F000C093DF03EB89FC8980819D89892B8083B0
:1045000081E001C080E0DF91CF9108951F920F926A
:104510000FB60F9211242F933F934F935F936F9396
:104520007F938F939F93AF93BF93EF93FF93E0910C
:10453000DF03F091E003309709F451C0868DA68522
:10454000B785958581FF04C08C91892329F447C0E4
:104550008C91892309F043C0A389B4899C918589F2
:10456000809589238C93868997890197F1F7208D0F
:10457000318DA685B785758558E040E0C901019762
:10458000F1F7842F90E095958795482F6C916723DC
:1045900009F04068515091F7868D81FD40958091DA
:1045A0009E0390E001968F73992720919D03281711
:1045B00049F0A0919E03B0E0A156BC4F4C9380936C
:1045C0009E0303C0868D8160868F828D938D0197B7
:1045D000F1F7A389B4898C919589892B8C93FF91EC
:1045E000EF91BF91AF919F918F917F916F915F916B
:1045F0004F913F912F910F900FBE0F901F901895E4
:1046000025ED31E0FC01318320830C9447221F9378
:10461000CF93DF93EC01162F6E8D6695617081E06C
:104620006827812F0E94122661E0812F0E94D925E0
:10463000812F90E0FC01EC59FD4FE491E88BFC01E7
:10464000E858FD4FE491F0E0EE0FFF1FEA56FD4FF2
:10465000859194919A8B898BDF91CF911F910895C9
:104660001F93CF93DF93EC01162F60E0812F0E9400
:10467000D9258E8D81FD04C061E0812F0E94122614
:104680001C87812F90E0FC01EC59FD4FE491ED87F0
:10469000FC01E858FD4FE491F0E0EE0FFF1FE457F6
:1046A000FD4F859194919F878E87DF91CF911F91C8
:1046B0000895FF920F931F93CF93DF93EC01F62E93
:1046C000522F1B821A8208EE13E020E030E00C83A8
:1046D0001D832E833F8385ED91E0998388831F8A14
:1046E0001E8A198E188E1B8E1A8E1D8E1C8E8E8D14
:1046F0008E7F50FB81F98E8F642FCE010E9407239D
:104700006F2DCE01DF91CF911F910F91FF900C94EF
:104710003023CF93DF93EC019A01AB011B8E1A8EED
:10472000198E188E1F8A1E8A60E079E08DE390E072
:104730000E94AD28C9012430310520F0B901635031
:10474000710902C061E070E07D8F6C8FEC85E6310D
:1047500008F068C0B901769567956431710518F065
:104760006351710902C061E070E07F8B6E8B069728
:1047700018F0C901059702C081E090E0998F888FF9
:10478000C901880F991F820F931F9695879596955B
:1047900087958D30910510F00C9702C081E090E074
:1047A0009B8F8A8F20916800E83050F091E0EE30C6
:1047B00008F490E081E001C0880F9A95EAF701C003
:1047C00084E0822B809368002C85283038F02E30CE
:1047D00040F0263148F48CE690E008C08DE690E089
:1047E00005C08BE690E002C080E090E09C8B8B8B54
:1047F000283030F481E001C0880F2A95EAF70DC017
:10480000822F90E02E3010F4089701C00E9791E0AF
:1048100001C0990F8A95EAF7892F8D8B8C8D9D8D1C
:104820000197F1F7CE01DF91CF910C945D220C94AA
:10483000472208958230E8F4E82FF0E0EE0FFF1FE2
:10484000E45FFE4F71836083813041F080916900A5
:104850008C7F842B80936900E89A08958091690089
:10486000440F551F440F551F837F842B809369008D
:10487000E99A0895823078F4813011F0E89801C007
:10488000E998E82FF0E0EE0FFF1FE45FFE4F89E1AB
:1048900094E29183808308951F920F920FB60F9236
:1048A00011242F933F934F935F936F937F938F9335
:1048B0009F93AF93BF93EF93FF93E0910C01F0911F
:1048C0000D010995FF91EF91BF91AF919F918F914C
:1048D0007F916F915F914F913F912F910F900FBEFC
:1048E0000F901F9018951F920F920FB60F921124E0
:1048F0002F933F934F935F936F937F938F939F93E8
:10490000AF93BF93EF93FF93E0910E01F0910F01EE
:104910000995FF91EF91BF91AF919F918F917F91F9
:104920006F915F914F913F912F910F900FBE0F901C
:104930001F9018951F920F920FB60F9211242F936C
:104940003F938F939F93AF93BF938091E203909196
:10495000E303A091E403B091E5033091E10323E088
:10496000230F2D3720F40196A11DB11D05C026E8A7
:10497000230F0296A11DB11D2093E1038093E20352
:104980009093E303A093E403B093E5038091E603DF
:104990009091E703A091E803B091E9030196A11D6E
:1049A000B11D8093E6039093E703A093E803B093CF
:1049B000E903BF91AF919F918F913F912F910F90FC
:1049C0000FBE0F901F9018952FB7F8946091E203D7
:1049D0007091E3038091E4039091E5032FBF089564
:1049E0003FB7F8948091E6039091E703A091E80324
:1049F000B091E90326B5A89B05C02F3F19F0019699
:104A0000A11DB11D3FBF6627782F892F9A2F620FF6
:104A1000711D811D911D42E0660F771F881F991F30
:104A20004A95D1F708958F929F92AF92BF92CF92FD
:104A3000DF92EF92FF926B017C010E94F0244B0108
:104A40005C01C114D104E104F104F1F00E94522888
:104A50000E94F024681979098A099B09683E73400D
:104A60008105910570F321E0C21AD108E108F1082F
:104A700088EE880E83E0981EA11CB11CC114D104DD
:104A8000E104F10429F7DDCFFF90EF90DF90CF90A4
:104A9000BF90AF909F908F9008958230910538F02D
:104AA000880F991F880F991F05970197F1F70895AF
:104AB000789484B5826084BD84B5816084BD85B5F9
:104AC000826085BD85B5816085BDEEE6F0E08081C0
:104AD00081608083E1E8F0E01082808182608083E1
:104AE000808181608083E0E8F0E080818160808364
:104AF000E1EBF0E0808184608083E0EBF0E0808196
:104B000081608083EAE7F0E0808184608083808137
:104B100082608083808181608083808180688083DF
:104B20001092C10008958E3008F08E508770209149
:104B3000100190E4299F90011124822B80937C0026
:104B400080917A00806480937A0080917A0086FD5B
:104B5000FCCF809178002091790090E0922B08950D
:104B6000833081F028F4813099F08230A1F00895EB
:104B70008730A9F08830B9F08430D1F4809180007A
:104B80008F7D03C0809180008F778093800008958F
:104B900084B58F7702C084B58F7D84BD08958091E0
:104BA000B0008F7703C08091B0008F7D8093B000FC
:104BB0000895CF93DF9390E0FC01EC59FD4F2491D1
:104BC000FC01E858FD4F8491882349F190E0880F5B
:104BD000991FFC01E056FD4FA591B4918A569D4F57
:104BE000FC01C591D4919FB7611108C0F8948C91D4
:104BF000209582238C93888182230AC0623051F4ED
:104C0000F8948C91322F309583238C938881822B5A
:104C1000888304C0F8948C91822B8C939FBFDF9182
:104C2000CF9108950F931F93CF93DF931F92CDB72A
:104C3000DEB7282F30E0F901E05BFD4F8491F901E8
:104C4000EC59FD4F1491F901E858FD4F04910023F0
:104C5000C9F0882321F069830E94B0256981E02F83
:104C6000F0E0EE0FFF1FEA56FD4FA591B4919FB7FC
:104C7000F8948C91611103C01095812301C0812BA0
:104C80008C939FBF0F90DF91CF911F910F9108954B
:104C9000CF92DF92EF92FF920F931F93CF93DF9308
:104CA0007C016A01EB0100E010E00C151D0571F0BC
:104CB0006991D701ED91FC910190F081E02DC70140
:104CC0000995892B19F00F5F1F4FEFCFC801DF91B6
:104CD000CF911F910F91FF90EF90DF90CF900895AB
:104CE000FC01DB0111821082138212821582148270
:104CF0008D919C9111979183808312968D919C91B7
:104D000013979383828314968D919C911597958325
:104D1000848311961C921E9213961C921E921297D7
:104D200015961C921E9214970895FC018081918122
:104D30000C948B29CF93DF93EC01888199810097A4
:104D400011F00E948B29198218821D821C821B82FD
:104D50001A82DF91CF9108950F931F93CF93DF9322
:104D6000EC018B016F5F7F4F888199810E941A2A25
:104D7000009731F0998388831B830A8381E001C007
:104D800080E0DF91CF911F910F910895CF93DF9332
:104D9000EC0188819981892B29F08A819B81861772
:104DA000970760F4CE010E94AC26882341F08C81E5
:104DB0009D81892B19F4E881F981108281E0DF91CE
:104DC000CF910895EF92FF920F931F93CF93DF93AC
:104DD000EC017B018A01BA010E94C626811104C040
:104DE000CE010E949A2607C01D830C83B7018881DB
:104DF00099810E94ED2ACE01DF91CF911F910F91F1
:104E0000FF90EF900895FC011182108213821282AC
:104E1000158214826115710559F0FB010190002083
:104E2000E9F7AF0141505109461B570B0C94E2269C
:104E300008950F931F93CF93DF938C01EB01FC0137
:104E400080819181009799F0428153812C813D812D
:104E50004217530750F0688179810E94ED2A8C81B6
:104E60009D81F8019583848313C00E948B298881DA
:104E70009981F801918380838A819B8193838283C6
:104E80008C819D8195838483198218821B821A826A
:104E90001D821C82DF91CF911F910F910895CF93B6
:104EA000DF93EC01FB018617970761F06081718148
:104EB0006115710529F0448155810E94E22602C0E6
:104EC0000E949A26CE01DF91CF910895FC011182B4
:104ED000108213821282158214820C944F27CF9372
:104EE000DF93EC018617970711F00E941927CE0176
:104EF000DF91CF910895CF93DF93EC016115710598
:104F000061F0FB0101900020E9F7AF014150510928
:104F1000461B570B0E94E22602C00E949A26CE0131
:104F2000DF91CF9108950F931F93CF93DF93CDB768
:104F3000DEB762970FB6F894DEBF0FBECDBF8C010F
:104F4000CB01F80111821082138212821582148221
:104F500050E0BE016F5F7F4F0E94032BBE016F5F69
:104F60007F4FC8010E947B2762960FB6F894DEBF80
:104F70000FBECDBFDF91CF911F910F910895EF929A
:104F8000FF920F931F93CF93DF93EC017B010C8172
:104F90001D816115710511F480E016C041155105A0
:104FA00091F0040F151FB8010E94C6268823A1F3B3
:104FB000288139818C819D81B701820F931F0E94C6
:104FC000ED2A1D830C8381E0DF91CF911F910F911A
:104FD000FF90EF900895CF93DF93EC01FB014481A4
:104FE0005581608171810E94BF27811103C0CE016C
:104FF0000E949A26CE01DF91CF910895CF93DF933F
:10500000EC016115710569F0FB0101900020E9F7E1
:10501000AF0141505109461B570B0E94BF27811118
:1050200003C0CE010E949A26CE01DF91CF91089550
:105030000F931F93CF93DF93EB0141155105E9F0D7
:105040002097D9F0FC016481758126173707A0F4F9
:10505000621B730B8A01015011096017710708F474
:105060008B01FC0160817181620F731FA801CE0169
:105070000E94F42AC00FD11F1882DF91CF911F9197
:105080000F91089508950E9458250E9442280E9479
:105090009902C0E0D0E00E94AD142097E1F30E9495
:1050A0000000F9CF0895DB018F939F930E94E828B9
:1050B000BF91AF91A29F800D911DA39F900DB29FB4
:1050C000900D11240895AA1BBB1B51E107C0AA1F14
:1050D000BB1FA617B70710F0A61BB70B881F991F99
:1050E0005A95A9F780959095BC01CD01089597FB3D
:1050F000072E16F4009407D077FD09D00E9463288C
:1051000007FC05D03EF4909581959F4F08957095CA
:1051100061957F4F0895A1E21A2EAA1BBB1BFD01CA
:105120000DC0AA1FBB1FEE1FFF1FA217B307E40786
:10513000F50720F0A21BB30BE40BF50B661F771FDE
:10514000881F991F1A9469F76095709580959095BE
:105150009B01AC01BD01CF010895052E97FB1EF404
:1051600000940E94C42857FD07D00E948B2807FC9A
:1051700003D04EF40C94C428509540953095219559
:105180003F4F4F4F5F4F0895909580957095619573
:105190007F4F8F4F9F4F0895EE0FFF1F0590F491A3
:1051A000E02D0994A29FB001B39FC001A39F700D91
:1051B000811D1124911DB29F700D811D1124911D1F
:1051C00008950E94D228B7FF0895821B930B08957B
:1051D0000E94D228A59F900DB49F900DA49F800D92
:1051E000911D11240895CF93DF938230910510F41F
:1051F00082E090E0E091EC03F091ED0320E030E0FC
:10520000A0E0B0E0309739F140815181481759074B
:10521000B8F04817590771F482819381109729F0EB
:1052200013969C938E9312972CC09093ED038093CA
:10523000EC0327C02115310531F04217530718F050
:10524000A901DB0101C0EF019A01BD01DF0102806C
:10525000F381E02DD7CF21153105F9F0281B390B4B
:105260002430310580F48A819B816115710521F01C
:10527000FB019383828304C09093ED038093EC033E
:10528000FE01329644C0FE01E20FF31F8193919319
:1052900022503109398328833AC02091EA033091A2
:1052A000EB03232B41F42091020130910301309351
:1052B000EB032093EA0320910001309101012115B5
:1052C000310541F42DB73EB74091040150910501DD
:1052D000241B350BE091EA03F091EB03E217F3078F
:1052E000A0F42E1B3F0B2817390778F0AC014E5F56
:1052F0005F4F2417350748F04E0F5F1F5093EB03A5
:105300004093EA038193919302C0E0E0F0E0CF0183
:10531000DF91CF910895CF93DF93009709F487C071
:10532000FC01329713821282C091EC03D091ED03FD
:10533000209781F420813181280F391F8091EA0361
:105340009091EB038217930779F5F093EB03E093C9
:10535000EA036DC0DE0120E030E0AE17BF0750F475
:1053600012964D915C9113979D014115510509F1DC
:10537000DA01F3CFB383A28340815181840F951F5B
:105380008A179B0771F48D919C911197840F951F3B
:1053900002969183808312968D919C9113979383AB
:1053A00082832115310529F4F093ED03E093EC039A
:1053B0003EC0D9011396FC93EE9312974D915D91E7
:1053C000A40FB51FEA17FB0779F480819181840F40
:1053D000951F0296D90111969C938E938281938199
:1053E00013969C938E931297E0E0F0E08A819B8164
:1053F000009719F0FE01EC01F9CFCE010296288149
:105400003981820F931F2091EA033091EB03281713
:10541000390769F4309729F41092ED031092EC03E8
:1054200002C013821282D093EB03C093EA03DF9190
:10543000CF910895A0E0B0E0E0E2FAE20C945D2B99
:10544000EC01CB01209719F40E94F328B8C0FE01AB
:10545000E60FF71F9E0122503109E217F30708F407
:10546000ACC0D9010D911C91119706171707B8F020
:105470000530110508F49FC0A80144505109461792
:10548000570708F498C002501109061B170B019327
:1054900011936D937C93CF010E948B298CC05B018B
:1054A000A01AB10A4E01800E911EA091EC03B0919A
:1054B000ED03612C712C60E070E0109709F449C095
:1054C000A815B905C9F5ED90FC901197670142E068
:1054D000C40ED11CCA14DB0478F147018A189B085A
:1054E000640142E0C40ED11C1296BC901297139630
:1054F000AC91B5E0CB16D10440F0B282A383918287
:105500008082D9018D939C9309C00E5F1F4F0E0DB1
:105510001F1DF90111830083EB2DFA2F6115710511
:1055200031F0DB011396FC93EE93129744C0F09395
:10553000ED03E093EC033FC06D917C9111976616EB
:10554000770608F43B01BD0112960D90BC91A02D89
:10555000B4CF6091EA037091EB0368157905E9F423
:1055600068167906D0F4409100015091010141156F
:10557000510541F44DB75EB760910401709105018A
:10558000461B570BE417F507C0F4F093EB03E093C9
:10559000EA03F901918380830EC00E94F3287C0105
:1055A000009759F0A801BE010E94E42ACE010E9492
:1055B0008B29C70104C0CE0102C080E090E0CDB7C6
:1055C000DEB7EEE00C94792BFB01DC0102C0019008
:1055D0000D9241505040D8F70895FB01DC01019035
:1055E0000D920020E1F70895FB01DC01415050408D
:1055F00048F001900D920020C9F701C01D92415062
:105600005040E0F708954532510520F4423010F043
:105610000C940E2BFB011082CB010895BB274A305E
:1056200031F4992322F4BDE2909581959F4F0C941B
:105630001A2BBB27FB015527AA27880F991FAA1FE2
:10564000A41710F0A41B83955051B9F7A05DAA339D
:1056500008F0A95DA193009779F7B111B193119268
:10566000CB010C94492BF999FECF92BD81BDF89ADC
:10567000992780B50895262FF999FECF1FBA92BDBC
:1056800081BD20BD0FB6F894FA9AF99A0FBE019623
:105690000895DC01FC01672F71917723E1F73297C0
:1056A00004C07C916D9370836291AE17BF07C8F3FD
:1056B00008952F923F924F925F926F927F928F92B6
:1056C0009F92AF92BF92CF92DF92EF92FF920F9391
:1056D0001F93CF93DF93CDB7DEB7CA1BDB0B0FB69B
:1056E000F894DEBF0FBECDBF09942A883988488858
:1056F0005F846E847D848C849B84AA84B984C884EE
:10570000DF80EE80FD800C811B81AA81B981CE0FE4
:10571000D11D0FB6F894DEBF0FBECDBFED010895C9
:1057200012E0CCEAD2E004C0FE010E94CE2822960C
:0A573000CE3AD107C9F7F894FFCF75
:10573A000000EE038000FFFF010101011924192472
:10574A000168006A00F1000400000068006A00F1C4
:10575A000001000C00D00068006A00F1000100019D
:10576A0000000068006A00F1000300C60020503003
:10577A00004353204552524F522000494E4954206B
:10578A004F4B004D555420494E49540057414954F6
:10579A00494E47004641494C005642415400525531
:1057AA004E0053554D4D41524E495920524153488E
:1057BA004F4420544F504C495641004C3130300030
:1057CA004C314800434F4F4C414E542054454D50A4
:1057DA000052504D004C54465400445443204D4FFF
:1057EA00444500574149540049534F20494E4954B2
:1057FA00004E4F20445443004552522052454144E2
:10580A000000000000C22148262F22A121152214DF
:02581A0022006A
:00000001FF
