:100000000C9457010C94FE230C942B240C943B224B
:100010000C943B220C943B220C947F010C947F01A6
:100020000C947F010C947F010C947F010C947F0150
:100030000C947F010C947F010C947F010C947F0140
:100040000C9458240C9412020C947F010C947F01A0
:100050000C947F010C947F010C947F010C947F0120
:100060000C947F010C947F0113041D0424042B04C1
:1000700035043F04460450045A0461049105960572
:10008000DB05AC05BD05B805CC05D105D6050D06CB
:100090001206190623062A0631063B0640064706C5
:1000A00074067906B406850696069106A506AA0684
:1000B000AF0652072A07340738073F0746074D07A0
:1000C00059076307B7078F0799079D07A407AB0771
:1000D000B207BE07C8071408EC07F607FA070108BD
:1000E00008080F081B082508270970097F09C60999
:1000F000F1093F0A900ADD0AF50A220B00100010F0
:1001000000100010001000100010660BAB0BD70B96
:100110000E0C3B0C850C0010BF0CFB0C0010130DDB
:10012000490D740DBB0DFE0D340E00107B0EC60E76
:100130000A0F710FAF0F2F0F0010E30FC419FB1937
:10014000621AA91A1B1B871B371C8A1CC81C061D98
:10015000005EBCE2613FDD83C29C7E20A3FD1F41A7
:100160009DC3217FFCA2401E5F01E3BD3E6082DC97
:10017000237D9FC1421CFEA0E1BF5D0380DE3C6287
:10018000BEE0025CDF81633D7C22C09E1D43A1FF77
:100190004618FAA427799BC584DA3866E5BB590767
:1001A000DB856739BAE406581947A5FB7826C49A57
:1001B000653BD987045AB8E6A7F91B45C6987A2447
:1001C000F8A6441A99C7257B3A6486D85B05E7B937
:1001D0008CD2306EEDB3510F4E10F2AC2F7193CD27
:1001E000114FADF3702ECC92D38D6F31B2EC0E5017
:1001F000AFF1134DCE90722C6D33D18F0C52B0EE07
:10020000326C8ED0530DEFB1F0AE4C1291CF2D73F6
:10021000CA947628ABF517490856B4EA6937D58BE6
:100220005709EBB536688AD495CB2977F4AA4816D6
:10023000E9B7550B88D6346A2B7597C94A14F6A8C6
:10024000742AC896154BA9F7B6E80A54D7896B35B6
:100250000000000800020100000304070000000085
:100260000000000001020408102040800102040880
:1002700010200102040810200404040404040404EF
:100280000202020202020303030303030000000050
:1002900023002600290000000000250028002B0074
:1002A00000000000240027002A003010491011240B
:1002B0001FBECFEFD8E0DEBFCDBF11E0A0E0B1E0C0
:1002C000E2ECF5E502C005900D92AE3DB107D9F71D
:1002D00023E0AEEDB1E001C01D92AF3EB207E1F701
:1002E00012E0CCEAD2E004C02297FE010E9412285C
:1002F000CA3AD107C9F70E94F4250C94D42A0C9469
:1003000000008CB5806C8CBD089586EE91E00E9453
:10031000B52285E092E00E94B52285E693E00C9438
:100320002B26CF92DF92EF92FF920F931F93CF93E2
:10033000DF9300D0CDB7DEB76C018B017C0184E088
:10034000E80EF11CC60169837A830E94772AF801BE
:1003500081938F01FFEFCF1ADF0A69817A81CE1472
:10036000DF0481F7CB010F900F90DF91CF911F91A8
:100370000F91FF90EF90DF90CF900895EF92FF9252
:100380000F931F93CF93DF931F92CDB7DEB77C01FE
:10039000FC0100811181C80169830E94772A69816B
:1003A000681719F0C8010E947F2AC7010F90DF91DA
:1003B000CF911F910F91FF90EF900895BF92CF9230
:1003C000DF92EF92FF920F931F93CF93DF9300D0B2
:1003D0001F92CDB7DEB78C01B62EE62EF72E6C013C
:1003E00084E0C80ED11CF70161917F011A83098353
:1003F000CE0101967B830E94BE010F5F1F4F7B8160
:100400000C151D0581F78B2D972F0F900F900F90D6
:10041000DF91CF911F910F91FF90EF90DF90CF90E0
:10042000BF9008951F920F920FB60F9211242F9331
:100430003F934F935F936F937F938F939F93AF936C
:10044000BF93EF93FF938EB5E0916C0390916D0392
:100450002BE0E29FF0011124E90FF11DE259FC4F5E
:10046000808380916D038F5F80936D0380916D0316
:100470008B3039F480916C038F5F80936C03109202
:100480006D0380916C03843049F480E00E94EE2378
:1004900081E080936B038CB58F738CBDFF91EF91DE
:1004A000BF91AF919F918F917F916F915F914F918C
:1004B0003F912F910F900FBE0F901F901895CF93E3
:1004C000DF93D82FC8E0D0FF02C05F9A01C05F98C9
:1004D00081E090E00E94F9245E9A81E090E00E9421
:1004E000F9245E98D695C15071F7DF91CF910895A8
:1004F000FF920F931F93CF93DF93EC0184E0F82ECC
:1005000060E085E00E94BD258E01055F1F4F899147
:100510000E945F02C017D107D1F761E085E00E9419
:10052000BD25FA9469F7DF91CF911F910F91FF904C
:1005300008956EE372E084E292E00E94A4208111AB
:1005400004C084E292E00E946F2061E085E00E9496
:1005500084251CBC84EE8CBD40E052EC61E070E070
:1005600086EE91E00E943E2360E08BE00E948425AD
:1005700060E082E00E94842561E082E00E94BD2567
:1005800061E08BE00E94BD2560E08DE00E94842543
:1005900060E08AE00E94842560E08AE00E94BD2538
:1005A00061E087E00E94842561E086E00E94842566
:1005B00010926D0310926C0310926B0361E084E063
:1005C0000E94BD25399A419843E050E061E871E00E
:1005D00080E00E94CE2380E090E00E94772A809302
:1005E00048028093490289E090E00E94772A813096
:1005F000C1F466EE72E081E090E00E94910166EF46
:1006000072E085E090E00E94910162EE72E08AE083
:1006100090E00E94910162EF72E08EE090E00E9413
:1006200091012091E6023091E7024091E802509159
:10063000E902A8EEB3E00E942C282091F602309146
:10064000F7024091F8025091F9020E94CF272093BF
:10065000DA023093DB024093DC025093DD0242EA7F
:1006600052E020E030E060E470E2A0E1B8E080E039
:1006700090E0FA01E80FF91F10822115310531F4DD
:100680008A309105E9F4B093AC021AC021303105EB
:1006900031F48A309105A1F4A093B70211C0223041
:1006A000310531F48A30910559F47093C20208C0C3
:1006B0002330310529F48A30910511F46093CD027D
:1006C00001968B309105A9F62F5F3F4F455F5F4F35
:1006D0002430310561F682EA92E00C947802CF93DF
:1006E000DF93EC0182E00E943E2528EE33E0DC013E
:1006F0000E9425282FEF33E040E050E00E94F127D0
:10070000DE010E942C2828EE33E040E050E00E94F9
:10071000F127C901DF91CF910895FC0190E080E0BD
:10072000961729F020813296820F9F5FF9CF0895A6
:1007300020919F02322F306830939F0218161906BD
:100740000CF05DC0206A20939F028E3091050CF45E
:1007500056C030917E02232F206120937E028C317F
:1007600091050CF44CC020919402206820939402CF
:10077000873291050CF443C02091890220682093B0
:10078000890284339105DCF1306930937E02813433
:100790009105ACF12091A00221602093A0028E343B
:1007A00091056CF18B35910554F120917F02322F28
:1007B000316030937F02873691050CF130918A02C7
:1007C000432F416040938A0284379105C4F04091E1
:1007D00095028138910524F4416040939502089573
:1007E0004360409395028E3891054CF0336030930E
:1007F0008A028A3991051CF0236020937F020895B4
:100800009091790290689093790290E08A309105F6
:1008100008F067C0FC01EC5CFF4F3091850220912D
:1008200090020C94102880917A02816080937A0261
:1008300033603093850222604DC032603093850270
:10084000226020939002089580917A0281608093C3
:100850007A02316006C080917A02816080937A02C8
:1008600032603093850223601FC03260309385026E
:1008700023602093900280919B02816030C0809120
:100880007A02816080937A02326006C080917A0297
:10089000816080937A0233603093850221601AC0B0
:1008A00032603093850222602093900280919B02F7
:1008B000826015C080917A02816080937A023360F1
:1008C00006C080917A02816080937A023260309310
:1008D000850223602093900280919B028360809325
:1008E0009B020895CF93DF9367E08EE392E00E942E
:1008F0003C219091450289133AC080913E0280319B
:1009000011F08832A1F584E292E00E944C1F6EE360
:1009100072E084E292E00E94472040E064E484E2D6
:1009200092E00E94E91F84E292E00E944C1F6EE375
:1009300072E084E292E00E94472040E06EEB84E2A5
:1009400092E00E94E91FC2E3D2E084E292E00E94BA
:100950002B20899382E0CB33D807B9F780913302FB
:1009600090E0982F882720913202822B02C088E1E4
:100970009CEFDF91CF910895CF92DF92EF92FF929B
:100980000F931F93CF93DF93C82ED62EC9016AE031
:1009900070E00E94A727059714F0411107C0C90114
:1009A0006AE070E00E94A727FB0102C0FB013196BC
:1009B000CF0168EE73E00E94A7279B01CF0164E698
:1009C00070E00E94A727CB010AE010E0B8010E9466
:1009D000A727EC01CF01B8010E94A7277C01CB011A
:1009E000B8010E94A727AC01C11011C0209709F4DB
:1009F000CCC1C130D10531F48091930281608093E4
:100A0000930205C080918702806280938702DD2077
:100A100029F080919E02806880939E0223303105E8
:100A200059F184F421303105F1F02230310509F01B
:100A300050C080917C02806180937C02809187020B
:100A4000886222C02530310581F124F1263031053C
:100A500009F03FC080917C02806180937C0280918C
:100A6000870288662AC0809187028064809387020B
:100A700080919202806416C080917C028061809394
:100A80007C02809187028066809387028091920227
:100A9000806518C08091870280668093870280916C
:100AA000920288658093920214C080917C028061DA
:100AB00080937C0280918702806680938702809178
:100AC000920288618093920280919D02806480935B
:100AD0009D02FE013197E930F10540F4E25CFF4FE1
:100AE00080919302909188020C9410282115310571
:100AF00009F471C080918702806880938702809199
:100B0000920280688093920280917D02816080933E
:100B10007D02809188028460809388028091930294
:100B20003EC094609093880284601FC060917D02F3
:100B3000616060937D0292609093880285608093EB
:100B4000930280919E02846080939E02809187022E
:100B50008068809387023FC06091920260686093D2
:100B6000920296609093880285608093930233C0CE
:100B7000609187026068609387026091920260686A
:100B80006093920260917D02616060937D02966045
:100B900090938802816018C094609093880284606A
:100BA00013C060918702606860938702609192022F
:100BB00060686093920260917D02616060937D0243
:100BC00096609093880285608093930280919E0244
:100BD000846080939E02FA013197E930F10540F478
:100BE000E95BFF4F80919302909188020C9410284A
:100BF000CD2B29F4232B19F4DD2009F458C0809162
:100C00007D02806180937D02809188028864809358
:100C1000880280919302886443C090649093880214
:100C2000806415C020917D02206120937D0298622E
:100C300006C020917D02206120937D0290669093F2
:100C4000880280652DC090669093880288658093A5
:100C500093022DC020917D02206120937D02906639
:100C600006C020917D02206120937D0298669093BA
:100C70008802886115C0906490938802806410C0D7
:100C800020917D02206120937D02986606C020910C
:100C90007D02206120937D02906690938802886592
:100CA0008093930280919E02806480939E02F7015C
:100CB00031979091890280919402E930F10520F4F6
:100CC000E05BFF4F0C94102820918802206820934D
:100CD00088022091930220682093930220917E0243
:100CE000216020937E0231C09460909389028460D9
:100CF00015C02091880220682093880220917E02EE
:100D0000216020937E02926035C02091930220687A
:100D10002093930296609093890285608093940259
:100D20003AC0209188022068209388022091930283
:100D300020682093930220917E02216020937E02FE
:100D4000966090938902816018C0946090938902A4
:100D5000846013C02091880220682093880220912B
:100D6000930220682093930220917E0221602093B9
:100D70007E029660909389028560809394028091B0
:100D80009F02846080939F0206C0809188028260E7
:100D9000809388023CCEDF91CF911F910F91FF90FD
:100DA000EF90DF90CF900895AF92BF92DF92EF92D5
:100DB000FF920F931F93CF93DF93D82ECB016AE05E
:100DC00070E00E94A7279B01059714F02F5F3F4F0B
:100DD000C90168EE73E00E94A727EB01C90164E630
:100DE00070E00E94A7270AE010E0CB01B8010E9442
:100DF000A7277C01C901B8010E94A7275C01CB018C
:100E0000B8010E94A7279C01DD2029F0809199025A
:100E1000806280939902C130D10519F481E08093FA
:100E20008F02A701415051099091830280918E0257
:100E30004930510528F4475A5F4FFA010C941028A5
:100E4000209709F450C040917802406C409378029A
:100E5000906435C040917802406440937802906C71
:100E600090938302806838C04091780240642EC01D
:100E700040917802406840937802906C14C0409191
:100E80007802406C40937802906823C040917802C9
:100E9000406C40937802906812C0409178024064A0
:100EA00040937802906490938302806480938E02D2
:100EB0001AC040917802406C40937802906C9093F5
:100EC0008302806C09C040917802406C40937802A4
:100ED000906C90938302806480938E02809199023B
:100EE000806480939902215031099091830280910E
:100EF0008E022930310528F42E593F4FF9010C9408
:100F00001028EF2829F4CD2B19F4DD2009F450C066
:100F100020917802206320937802906135C020915F
:100F2000780220612093780290639093830280621C
:100F300038C02091780220612EC020917802206272
:100F400020937802906314C020917802206320934C
:100F50007802906223C02091780220632093780267
:100F6000906212C0209178022061209378029061F3
:100F700090938302806180938E021AC02091780240
:100F8000206320937802906390938302806309C06A
:100F900020917802206320937802906390938302DB
:100FA000806180938E028091990280618093990282
:100FB000F50131979091830280918E02E930F1051D
:100FC00020F4E559FF4F0C941028209178022C60F2
:100FD00020937802946035C0209178022460209399
:100FE00078029C6090938302886038C020917802D8
:100FF00024602EC0209178022860209378029C60A3
:1010000014C0209178022C6020937802986023C04D
:10101000209178022C6020937802986012C0209171
:101020007802246020937802946090938302846015
:1010300080938E021AC0209178022C60209378024F
:101040009C60909383028C6009C0209178022C6090
:10105000209378029C6090938302846080938E0238
:1010600080919902846080939902DF91CF911F91C2
:101070000F91FF90EF90DF90BF90AF9008952F9267
:101080003F924F925F926F927F928F929F92AF9218
:10109000BF92CF92DF92EF92FF920F931F93CF9365
:1010A000DF9300D01F92CDB7DEB75C01E62FDC01E5
:1010B0008D010A191B098D918111FACF8091E401EC
:1010C0009091E5018017910791F01092E301109241
:1010D000E2018FEF9FEF9093E1018093E001109286
:1010E000DF011092DE011093E5010093E40128E096
:1010F00030E02E1B3109201731070CF057C08091CA
:101100002A0390912B03A0912C03B0912D034091C1
:1011100002035091030360910403709105032C01B5
:101120003D01441A550A660A770AB301A2014B3FF2
:1011300051056105710508F443C06091E0017091AB
:10114000E101AB014F5F5F4F4217530714F1980164
:10115000215031096217730759F4E090DE01F090D5
:10116000DF01FFEFEF1AFF0AF092DF01E092DE01EC
:10117000E090E201F090E301E216F3063CF4FFEFA9
:10118000EF1AFF0AF092E301E092E201621773079F
:1011900024F45093E1014093E00180930203909383
:1011A0000303A0930403B09305030AC01092E30164
:1011B0001092E201C80101979093E1018093E00150
:1011C0002090E0013090E1018090E2019090E301F5
:1011D0004090DE01420C74014E0E498248E050E01E
:1011E00081E090E029812E192E143F040CF40CC7E5
:1011F000A22FA695B0E0E22FE1702E2F30E0BD01C6
:10120000620F731FEE2319F01B821A8204C0E4E000
:10121000F0E0FB83EA83220F331F220F331F6501A7
:10122000CE0CDF1CF6014080552447FC5094652C01
:10123000752C6201F0E3CF1AD108EAE2CE16D10490
:1012400008F0DEC6F601EC58FF4F0C941028E7E0DA
:101250004E2E512C4A1A5B0AD201EA81FB81339649
:101260006C0101C0CC0CEA95EAF7AA58BD4F1B9659
:10127000EC911B97EC291B96EC931B975696EC91DF
:101280005697EC295696EC935697FA01E61BF70B06
:10129000B9016E5F7F4F3C0102C0660C771C6A95F6
:1012A000E2F7B301EA58FD4F7689D384D62AD38674
:1012B000D1A0D62AD1A23C01022E01C0660C0A940C
:1012C000EAF7D080D628D0822F5F3F4F2C0102C092
:1012D000440C551C2A95E2F7762B7429768BFDC5B4
:1012E000FA01E61BF70B2E5F3F4F3C0102C0660C74
:1012F000771C2A95E2F79301EA58FD4F6FC16A0106
:10130000C61AD70AB6016901E2E0CE0ED11C2C0143
:1013100002C0440C551CCA94E2F762016A587D4F22
:10132000FB01D1A0DC28D1A276887C286901FFEFDF
:10133000CF1ADF0A2C0102C0440C551CCA94E2F7F4
:10134000FB013385342933872C0102C0440C551C22
:101350002A95E2F792017428768A37E0632E712C81
:101360006A1A7B0AD301AA58BD4FEA81FB813396E2
:101370006C0102C0CC0CDD1CEA95E2F71B963C9197
:101380001B973C291B963C93DB01C6C0FA01E61B68
:10139000F70BB9016E5F7F4F2C0102C0440C551C46
:1013A0006A95E2F7B201EA58FD4F71A1762B71A35D
:1013B000A689A62BB385B62BB9016F5F7F4F3C0181
:1013C00002C0660C771C6A95E2F7B629B3876C01F8
:1013D00002C0CC0CDD1C2A95E2F79601AC29A68B45
:1013E000BAC5FA01E61BF70BBF016901F2E0CF0EA7
:1013F000D11C2C0102C0440C551CCA94E2F76201B6
:101400006A587D4FFB01D688DC28D68AD384DC2835
:10141000D386F7E04F2E512C4A1A5B0AD201AA5804
:10142000BD4FEA81FB8133963C0102C0660C771CFC
:10143000EA95E2F7F3015696FC915697FE2B5696E5
:10144000FC93F90131966C0102C0CC0CDD1CEA95CD
:10145000E2F7DB011B963C911B973C291B963C93C2
:101460001B97FC0102C0EE0FFF1F2A95E2F79F01B8
:1014700056963C915697322B56963C93C1C52A01FD
:10148000461A570AB2016901E2E0CE0ED11C2C01C6
:1014900002C0440C551CCA94E2F762016A587D4FA1
:1014A000FB01D1A0DC28D1A2E7E04E2E512C4A1A34
:1014B0005B0AD201AA58BD4FEA81FB8133963C01F9
:1014C00002C0660C771CEA95E2F7F3015696FC9190
:1014D0005697FE2B5696FC93F9013196DC0102C01B
:1014E000AA0FBB1FEA95E2F7FD01DB011B96FC91F9
:1014F0001B972C0102C0440C551C2A95E2F792015F
:1015000056963C915697322B56963C935697FE2B07
:10151000FC291B96FC931B973C91322B3C9370C586
:101520003A01661A770AB3016901E2E0CE0ED11CD6
:101530002C0102C0440C551CCA94E2F762016A589F
:101540007D4FFB01D1A0DC28D1A2F7E04F2E512C1A
:101550004A1A5B0AD201EA81FB8133963C0101C041
:10156000660CEA95EAF7AA58BD4F5696EC91569745
:10157000E6295696EC935697F90131962C0102C054
:10158000440C551CEA95E2F75B824A82FB01D38446
:101590002C0102C0440C551C2A95E2F792013689B1
:1015A000322B368B5A80D528DC28D3861B963C916B
:1015B0001B9736291B963C93CEC4FA01E61BF70B0A
:1015C0002E5F3F4F3C0102C0660C771C2A95E2F764
:1015D0009301EA58FD4F31A1322B31A33689322BCA
:1015E000368B3385322B33870BC5E7E0CE2ED12CDB
:1015F000CA1ADB0AD601EA81FB8133962C0102C0AC
:10160000440C551CEA95E2F7F201AA58BD4F1B960F
:10161000FC911B97FE2B1B96FC931B975696FC91F7
:101620005697FE2B5696FC93FA01E61BF70BB90171
:101630006E5F7F4F3C0102C0660C771C6A95E2F733
:10164000B30125C0F7E06F2E712C6A1A7B0AD30113
:10165000AA58BD4FEA81FB8133966C0102C0CC0CC5
:10166000DD1CEA95E2F7F6015696FC915697FE2BA3
:101670005696FC93FA01E61BF70BB9016E5F7F4F9C
:10168000DC0102C0AA0FBB1F6A95E2F7BD01EA5850
:10169000FD4F7689D384A1A1A62BA1A3DC01022E44
:1016A00001C0AA0F0A94EAF7B081BA2BB0832F5F6A
:1016B0003F4F2C0102C0440C551C2A95E2F7D62A54
:1016C000D428D386762B7A2B768B9AC4E7E06E2EBD
:1016D000712C6A1A7B0AD301EA81FB8133966C0173
:1016E00002C0CC0CDD1CEA95E2F7F601AA58BD4F0A
:1016F0001B96FC911B97FE2B1B96FC931B975696F3
:10170000FC915697FE2B5696FC93FA01E61BF70BBD
:10171000EA58FD4FA689B9016F5F7F4F6C01062E15
:1017200001C0CC0C0A94EAF7B3856F5F7F4F2C01A0
:1017300002C0440C551C6A95E2F7B201A4293C0191
:1017400002C0660C771C2A95E2F7A629A68BBC2955
:10175000B429B38752C4FA01E61BF70BDC01022E51
:1017600001C0AA0F0A94EAF7EA58FD4FB385BA2BD5
:10177000B9016F5F7F4F6C0102C0CC0CDD1C6A9514
:10178000E2F7B60171A1762BD080DA2AD0822E5FE3
:101790003F4F2C0102C0440C551C2A95E2F79201E0
:1017A000742971A33689322B368BB62B61C0F7E0D2
:1017B0006F2E712C6A1A7B0AD301EA81FB81339662
:1017C0006C0102C0CC0CDD1CEA95E2F7F601AA58C8
:1017D000BD4F1B96FC911B97FE2B1B96FC931B97F2
:1017E0005696FC915697FE2B5696FC93FA01E61BF3
:1017F000F70BEA58FD4FBC01022E01C0660F0A9498
:10180000EAF77081762B70832E5F3F4FBC0102C0D8
:10181000660F771F2A95E2F79B0173C0FA01E61B5A
:10182000F70BDC01022E01C0AA0F0A94EAF7EA586E
:10183000FD4FB385B9016F5F7F4F2C0102C0440C8F
:10184000551C6A95E2F7B20171A1762B60816A2B73
:1018500060832E5F3F4F3C0102C0660C771C2A95C7
:10186000E2F79301762971A33689322B368BBA2B96
:10187000B22BB387C5C3E7E0CE2ED12CCA1ADB0A40
:10188000D601EA81FB8133962C0102C0440C551C21
:10189000EA95E2F7F201AA58BD4F1B96FC911B97FF
:1018A000FE2B1B96FC931B975696FC915697FE2B8E
:1018B0005696FC93FA01E61BF70BDC01022E01C0E1
:1018C000AA0F0A94EAF7EA58FD4F60816A2B6083F9
:1018D000B9016F5F7F4F3C0102C0660C771C6A95AF
:1018E000E2F7B3017385762B738766896A2B668B63
:1018F0002E5F3F4F6C0102C0CC0CDD1C2A95E2F735
:10190000960131A1322B31A37BC3E7E0F0E0EA1B63
:10191000FB0BDF01EA81FB8133962C0102C0440CF2
:10192000551CEA95E2F7F201AA58BD4F1B96FC91AF
:101930001B97FE2B1B96FC931B975696FC91569774
:10194000FE2B5696FC93FA01E61BF70BEA58FD4F67
:10195000B9016F5F7F4F3C0102C0660C771C6A952E
:10196000E2F7B3017385762B7387BC01022E01C0A9
:10197000660F0A94EAF77689762B768BB9CFE7E083
:10198000F0E0EA1BFB0BDF01EA81FB8133962C01BF
:1019900002C0440C551CEA95E2F7F201AA58BD4F6B
:1019A0001B96FC911B97FE2B1B96FC931B97569640
:1019B000FC915697FE2B5696FC93FA01E61BF70B0B
:1019C000B9016E5F7F4F3C0102C0660C771C6A95BF
:1019D000E2F7EA58FD4FB385B629A689A629B901D1
:1019E0006F5F7F4F6C0102C0CC0CDD1C6A95E2F783
:1019F000BC29B38777C1FA01E61BF70BEA58FD4F04
:101A0000BC01022E01C0660F0A94EAF77385762B9B
:101A100073872F5F3F4FDC0102C0AA0FBB1F2A95BF
:101A2000E2F79D016ECFE7E0F0E0EA1BFB0BDF0180
:101A3000EA81FB8133966C0101C0CC0CEA95EAF790
:101A4000AA58BD4F5696EC915697EC295696EC93B2
:101A50005697FA01E61BF70BEA58FD4FD6881B96FE
:101A60006C911B976C291B966C93B9016F5F7F4F2C
:101A70002C0102C0440C551C6A95E2F7B201D4282F
:101A80003C0102C0660C771C2A95E2F7D628D68A5C
:101A900079C1F7E0CF2ED12CCA1ADB0AD601EA8130
:101AA000FB8133962C0102C0440C551CEA95E2F7E9
:101AB000AA58BD4F1B963C911B9734291B963C930B
:101AC0001B9756963C915697342956963C93FA01AB
:101AD000E61BF70BEA58FD4F3C0102C0660C771C71
:101AE0002A95E2F7930137C2E7E0CE2ED12CCA1A2D
:101AF000DB0AD601EA81FB8133962C0102C0440C3B
:101B0000551CEA95E2F7F201AA58BD4F1B96FC91CD
:101B10001B97FE2B1B96FC931B975696FC91569792
:101B2000FE2B5696FC93FA01E61BF70BEA58FD4F85
:101B3000BC01022E01C0660F0A94EAF771A1762B50
:101B400071A3B9016E5F7F4F3C0102C0660C771C28
:101B50006A95E2F72F5F3F4F6C0102C0CC0CDD1C91
:101B60002A95E2F796013689322B3629368B238562
:101B70002629238745C2E7E0F0E0EA1BFB0BDF01E3
:101B8000EA81FB8133962C0102C0440C551CEA9576
:101B9000E2F7F201AA58BD4F1B96FC911B97FE2B52
:101BA0001B96FC931B975696FC915697FE2B5696C8
:101BB000FC93FA01E61BF70BEA58FD4FBC01022E1D
:101BC00001C0660F0A94EAF771A1762B71A3B901DF
:101BD0006F5F7F4F3C0102C0660C771C6A95E2F78D
:101BE000B3017081762B70832E5F3F4F6C0102C072
:101BF000CC0CDD1C2A95E2F79601F0CCE7E0F0E092
:101C0000EA1BFB0BDF01EA81FB8133962C0102C04A
:101C1000440C551CEA95E2F7F201AA58BD4F1B96F9
:101C2000FC911B97FE2B1B96FC931B975696FC91E1
:101C30005697FE2B5696FC93FA01E61BF70BB9015B
:101C40006E5F7F4F3C0102C0660C771C6A95E2F71D
:101C5000EA58FD4F36893629368B33853629338746
:101C600031A1362931A370C1E7E0F0E0EA1BFB0B9C
:101C7000DF01EA81FB8133962C0102C0440C551C24
:101C8000EA95E2F7F201AA58BD4F1B96FC911B970B
:101C9000FE2B1B96FC931B975696FC915697FE2B9A
:101CA0005696FC93FA01E61BF70BB9016E5F7F4F66
:101CB0003C0102C0660C771C6A95E2F7B301EA5852
:101CC000FD4F71A1762B71A3A689A62BB9016F5F79
:101CD0007F4F6C0102C0CC0CDD1C6A95E2F73385A6
:101CE0003C293387BC0102C0660F771F2A95E2F7B3
:101CF000A62BA68B85C1E7E0F0E0EA1BFB0BDF011A
:101D0000EA81FB8133962C0102C0440C551CEA95F4
:101D1000E2F7F201AA58BD4F1B96FC911B97FE2BD0
:101D20001B96FC931B975696FC915697FE2B569646
:101D3000FC93FA01E61BF70BB9016E5F7F4F3C0184
:101D400002C0660C771C6A95E2F7B301EA58FD4FB2
:101D500071A1762B71A3A689A62BB9016F5F7F4F66
:101D60006C0102C0CC0CDD1C6A95E2F7B60133852C
:101D70003C2933872C0102C0440C551C2A95E2F7FC
:101D8000A429A68B2081262B20833AC1F7E06F2E51
:101D9000712C6A1A7B0AD301AA58BD4FEA81FB81D4
:101DA00033966C0102C0CC0CDD1CEA95E2F7F6011B
:101DB0005696FC915697FE2B5696FC93FA01E61B1D
:101DC000F70BDC01022E01C0AA0F0A94EAF7EA58C9
:101DD000FD4F60816A2B6083B9016F5F7F4F2C01DB
:101DE00002C0440C551C6A95E2F7B2017385B689AE
:101DF000BA2BB68B2E5F3F4F3C0102C0660C771C9E
:101E00002A95E2F7930131A1322B31A3762B722B65
:101E10007387F6C0FA01E61BF70BEA58FD4FBC01C9
:101E2000022E01C0660F0A94EAF77385762B73873A
:101E3000B9016F5F7F4F6C0102C0CC0CDD1C6A954D
:101E4000E2F7B60171A1762B2E5F3F4FDC0102C095
:101E5000AA0FBB1F2A95E2F77A2B71A3D1C0E7E046
:101E6000F0E0EA1BFB0BDF01EA81FB8133966C019A
:101E700001C0CC0CEA95EAF7AA58BD4F1B96EC912D
:101E80001B97EC291B96EC931B975696EC91569753
:101E9000EC295696EC935697FA01E61BF70BB9011D
:101EA0006E5F7F4F2C0102C0440C551C6A95E2F70F
:101EB000B201EA58FD4F7689762B768B7385762BA7
:101EC00073872F5F3F4F3C0102C0660C771C2A9539
:101ED000E2F793013081322B30832C912C292C9303
:101EE0008FC0E7E0CE2ED12CCA1ADB0AD601EA81D8
:101EF000FB8133962C0102C0440C551CEA95E2F795
:101F0000F201AA58BD4F1B96FC911B97FE2B1B9606
:101F1000FC931B975696FC915697FE2B5696FC9376
:101F2000FA01E61BF70BB9016E5F7F4F3C0102C05F
:101F3000660C771C6A95E2F7EA58FD4F3689362918
:101F4000368B3385362933876C0102C0CC0CDD1CFF
:101F50002A95E2F796013081322B308351C0E7E0B9
:101F6000F0E0EA1BFB0BDF01EA81FB8133962C01D9
:101F700002C0440C551CEA95E2F7F201AA58BD4F85
:101F80001B96FC911B97FE2B1B96FC931B9756965A
:101F9000FC915697FE2B5696FC935697FC91FE2B80
:101FA000FC93FA01E61BF70BEA58FD4F2F5F3F4FFA
:101FB0003C0102C0660C771C2A95E2F79301368932
:101FC000322B368B1DC0FA01E61BF70BBC01022E2B
:101FD00001C0660F0A94EAF7EA58FD4F7385762B25
:101FE00073872F5F3F4F6C0102C0CC0CDD1C2A951C
:101FF000E2F796013689322B368B21A1262B21A3BD
:102000002FEFE21AF20AEEC801501109801691066C
:1020100089F42814390471F41092E3011092E2015A
:102020008FEF9FEF9093E1018093E0011092DF0129
:102030001092DE010F900F900F90DF91CF911F91C2
:102040000F91FF90EF90DF90CF90BF90AF909F9057
:102050008F907F906F905F904F903F902F9008955A
:1020600066E471E085E693E00E94992663E084E2ED
:1020700092E00E94812020E048E069E085E092E063
:102080000E940E2320E041E160E086EE91E00C9496
:102090000E230C9485011F93CF93DF9300D0CDB70F
:1020A000DEB7182F7A836983682F86EE91E00E944D
:1020B0006921612F86EE91E00E946921698186EE97
:1020C00091E00E9469216A8186EE91E00E94692177
:1020D0000F900F90DF91CF911F910895EF92FF9293
:1020E0000F931F93CF93DF93CDB7DEB72A970FB629
:1020F000F894DEBF0FBECDBF8AE0EDE0F1E0DE0177
:10210000119601900D928A95E1F764E0CE01019657
:102110000E948D0390E09A8789878E010F5F1F4F81
:102120007E018BE0E80EF11CF80160810E5F1F4F0D
:1021300085E092E00E94692165E070E080E090E037
:102140000E94D1240E151F0579F72A960FB6F89430
:10215000DEBF0FBECDBFDF91CF911F910F91FF90DA
:10216000EF900895CF93C0E085E092E00E9448216F
:102170008F3F2FEF920759F461E070E080E090E02C
:102180000E94D124CF5FCF3079F78FEF9FEFCF91AF
:102190000895FF920F931F93CF93DF9300D000D049
:1021A00000D0CDB7DEB785E092E00E94CC2361E09D
:1021B00088E00E94842560E089E00E94842560E038
:1021C00088E00E94BD2568EC70E080E090E00E940D
:1021D000D12408E010E0FF24F3948F2D837311F0D5
:1021E00061E001C060E088E00E94BD2568EC70E01D
:1021F00080E090E00E94D124FF0C0150110969F7A2
:1022000061E088E00E94BD2564E071E080E090E03C
:102210000E94D12440EA58E260E070E085E092E05C
:102220000E943E2300E010E00E94B210FE013196B1
:10223000E10FF11DE10FF11D91838083019641F0C3
:102240001F5F6AE070E080E090E00E94D12401C04E
:102250000F5F073410F4133038F389819A81853584
:10226000910539F014E0880F991F1A95E1F705964A
:102270003DC08B819C818830910539F0B4E0880F96
:10228000991FBA95E1F7029631C08D819E81883001
:10229000910539F0A4E0880F991FAA95E1F70396FC
:1022A00025C069E170E080E090E00E94D12467EFF2
:1022B00085E092E00E94692185E092E00E94ED2194
:1022C00069E170E080E090E00E94D1240E94B210A9
:1022D0008C3C910549F464E670E080E090E00E9457
:1022E000D12481E090E002C087E090E026960FB60E
:1022F000F894DEBF0FBECDBFDF91CF911F910F913C
:10230000FF900895BF92CF92DF92EF92FF920F93CA
:102310001F93CF93DF93CDB7DEB7A0970FB6F89496
:10232000DEBF0FBECDBF8CE0E3E2F1E0DE015596EB
:1023300001900D928A95E1F77E0185E1E80EF11C8E
:1023400065E0C7010E948D0390E098A38F8F1C8ADF
:102350001B8A95E0B92E6E01E1E2CE0ED11C8701F9
:10236000F80160810E5F1F4F85E092E00E946921B5
:1023700065E070E080E090E00E94D1240C151D051E
:1023800079F764E170E080E090E00E94D1248E0152
:102390000F5F1F4F0E94B210F801819391938F013C
:1023A000EE15FF05B9F70B891C8969E0CE0101968E
:1023B0000E948D0390E00817190729F0BA9479F666
:1023C0008FEF9FEF0AC02B853C85C9018078992744
:1023D00027FF03C0C9018F779927A0960FB6F894FD
:1023E000DEBF0FBECDBFDF91CF911F910F91FF9048
:1023F000EF90DF90CF90BF9008957F928F929F9241
:10240000AF92BF92CF92DF92EF92FF920F931F9302
:10241000CF93DF93CDB7DEB7E2970FB6F894DEBF68
:102420000FBECDBF5C014B0166E471E0CE018D961D
:102430000E9499268AE0EFE2F1E0DE0157960190D2
:102440000D928A95E1F76E0187E1C80ED11C64E018
:10245000C6010E948D0390E098A38F8F1E8A1D8A6B
:1024600045E0742E8E010F5D1F4F7601F7016081EC
:10247000F2E0EF0EF11C85E092E00E94692165E038
:1024800070E080E090E00E94D124E016F10671F740
:1024900064E170E080E090E00E94D124CE010196DA
:1024A0007C010E94B210F701819391937F01EC159A
:1024B000FD05B9F7E988FA8868E0CE0101960E9427
:1024C0008D0390E0E816F90611F07A9471F6ED8824
:1024D000FE886AE0CE0101960E948D0390E0E81626
:1024E000F90609F065C0181419040CF05AC0698582
:1024F0007A85CB01807F9927892B11F5762F662766
:102500008B859C85680F791F40E1CE0187960E94DC
:10251000E7266AE371E0C8010E949926BE01695D61
:102520007F4FC8010E943F27BC01CE018D960E94BB
:10253000AF26C8010E942B26CE0187960E942B262B
:10254000F2E08F16910469F56D857E85CB01807F61
:102550009927892B31F5762F66278F859889680F03
:10256000791F40E1C8010E94E726BE01635D7F4FED
:10257000CE0187960E94C62669E371E0CE01879658
:102580000E945227B8010E943F27BC01CE018D96C0
:102590000E94AF26CE0187960E942B26C8010E947A
:1025A0002B26BE01635D7F4FC5010E94C6261CC05D
:1025B00040E1B701CE0187960E94E7266DE371E006
:1025C000C8010E949926BE01695D7F4FC8010E9423
:1025D0003F27BC01C5010E94C626C8010E942B26C8
:1025E000CE0187960E942B26CE018D960E942B2627
:1025F000C501E2960FB6F894DEBF0FBECDBFDF91E6
:10260000CF911F910F91FF90EF90DF90CF90BF90EF
:10261000AF909F908F907F900895CF93DF9385E048
:1026200092E00E94CC2361E088E00E94842560E073
:1026300089E00E94842561E088E00E94BD256CE26B
:1026400071E080E090E00E94D12460E088E00E9488
:10265000BD2568EC70E080E090E00E94D12460E04D
:1026600088E00E94BD2560E476E080E090E00E9472
:10267000D12461E088E00E94BD2568EC70E080E034
:1026800090E00E94D12449E05DE360E070E085E0E5
:1026900092E00E943E2368E770E080E090E00E94B4
:1026A000D1240E94B210D82F0E94B210C82F0E94CD
:1026B000B2109C01D53529F08D2F90E088519C4FA8
:1026C00010C0CF3E29F08C2F90E08053984F09C066
:1026D000853829F0C90199278854944F02C081E0B8
:1026E00090E0DF91CF910895FF920F931F93CF93C6
:1026F000DF9365E0F62E69E285E092E00E946921B1
:1027000085E092E00E94ED210E94B210EC016AE2A5
:1027100085E092E00E94692185E092E00E94ED212F
:102720000E94B2108C01FA9409F1CF3F8FEFD807C5
:1027300011F30F3F8FEF1807F1F2CE01AA2797FD93
:10274000A095BA2F6627782F892F9A2F222717FD59
:102750002095322F600F711F821F931F2AE030E0F7
:1027600040E050E00E94F127C9010AC00F3F8FEFFF
:10277000180721F0CF3F8FEFD807F9F680E090E0FF
:10278000DF91CF911F910F91FF900895CF93C5E0F6
:1027900060E185E092E00E94692185E092E00E947C
:1027A000ED210E94B2109C0128523109C15059F00C
:1027B0002F3F8FEF380761F34AE0429FC001439FEC
:1027C000900D112406C02F3F8FEF3807A9F78FEF28
:1027D0009FEFCF910895CF93C5E06FE285E092E03F
:1027E0000E94692185E092E00E94ED210E94B210D2
:1027F000C15059F08F3F2FEF920779F344E1489F82
:102800009001499F300D112406C08F3F2FEF920792
:10281000A9F72CE93FEFC901CF910895CF93C3E009
:102820006CE185E092E00E94692185E092E00E94DF
:10283000ED210E94B210C15029F08F3F2FEF920777
:1028400079F306C08F3F2FEF920711F48CE99FEFC9
:10285000CF910895CF93C5E061E285E092E00E94B8
:10286000692185E092E00E94ED210E94B2108F3F25
:102870002FEF920729F4C15079F780E090E00CC067
:1028800025E33CE0DC010E9425282AE030E040E01E
:1028900050E00E94F127C901CF910895CF93C5E080
:1028A0006CE085E092E00E94692185E092E00E9460
:1028B000ED210E94B2108F3F2FEF920729F4C150F3
:1028C00079F780E090E010C024EC30E0DC010E9459
:1028D0002528685A7146810991092AE030E040E0D4
:1028E00050E00E94F127C901CF910895CF93C5E030
:1028F00064E185E092E00E94692185E092E00E9417
:10290000ED210E94B2108F3F2FEF920729F4C150A2
:1029100079F780E090E00CC025EA3CE1DC010E9400
:10292000252828EE33E040E050E00E94F127C9015D
:10293000CF9108954F925F926F927F928F929F9264
:10294000AF92BF92CF92DF92EF92FF920F931F93BD
:10295000CF93DF93CDB7DEB72C970FB6F894DEBFD9
:102960000FBECDBF0E94A22460932A0370932B0355
:1029700080932C0390932D0380916B038823F1F1B6
:1029800080917803883069F580918303803149F51F
:1029900080918E03803229F580919903803409F566
:1029A0004AE452E020E030E0ABE080E090E0A29F1B
:1029B000B001A39F700D1124FB01E80FF91FE2592C
:1029C000FC4FB081FA01E80FF91FB08301968B30FC
:1029D000910591F72F5F3F4F455F5F4F24303105E1
:1029E00021F710926D0310926C0310926B0342E07A
:1029F00050E061E871E080E00E94CE2381E08093A6
:102A0000620380E090E020E030E0BC016A587D4F36
:102A1000AC01465B5D4FFB01E20FF31FDA01A20F31
:102A2000B31FAC91A0832F5F3F4F2B30310599F737
:102A30000B968C32910539F780918F028E7F8093AF
:102A40008F02109278021092830210928E021092DE
:102A5000990210927D0288E08093800280E1809349
:102A60008B0280E28093960280E48093A10280E052
:102A70000E943E258C018091520390915303800F58
:102A8000911F909353038093520360915A03709166
:102A90005B036F5F7F4F70935B0360935A036233F6
:102AA000710529F50E94BB27709355036093540369
:102AB000109253031092520310925B0310925A0328
:102AC0002CE831E0DB010E9425286093CE02709350
:102AD000CF028093D0029093D10224E630E040E010
:102AE00050E00E94CF273093470320934603000F06
:102AF000111F000F111F109351030093500386E51F
:102B000093E10E946F039C018536910508F452C140
:102B10006091D6027091D7028091D8029091D9022B
:102B2000620F731F811D911D6093D6027093D702AF
:102B30008093D8029093D9022091300330913103D1
:102B40002F5F3F4F309331032093300320313742C2
:102B5000C9F421E020935E0320E137E240E050E039
:102B60000E94CF2730934F0320934E031092D6023A
:102B70001092D7021092D8021092D902109231030B
:102B80001092300380915E0381111BC020913003AD
:102B900030913103C90164E670E00E94A727892BB8
:102BA00081F440E050E06091D6027091D7028091AC
:102BB000D8029091D9020E94CF2730934F032093DF
:102BC0004E032AE73DE080914E0390914F03281B6E
:102BD000390B4AE0429FC001439F900D112463E0EE
:102BE00070E00E94BB2770934D0360934C0380916B
:102BF00061038111FBC020914902222309F4F6C030
:102C0000293009F4F3C08FEF9FEF90930701809371
:102C1000060180916303811119C081E080936303F1
:102C200080912A0390912B03A0912C03B0912D0346
:102C30008093FE029093FF02A0930003B0930103E0
:102C400080E797E1909357038093560320934702C0
:102C500085E1809349028091560390915703019733
:102C600059F481E080936103809148028093490286
:102C70001092570310925603809161038111B6C0E0
:102C800080912A0390912B03A0912C03B0912D03E6
:102C90004091FE025091FF02609100037091010388
:102CA000841B950BA60BB70B40915603509157030D
:102CB0004053584F662757FD6095762F48175907A0
:102CC0006A077B0740F50E940D1390935903809388
:102CD00058038130910529F490935703809356034C
:102CE0001AC085E092E00E94CC2380E49FE190939B
:102CF00057038093560380912A0390912B03A09150
:102D00002C03B0912D038093FE029093FF02A093B9
:102D10000003B093010380912A0390912B03A091AB
:102D20002C03B0912D034091FE025091FF0260915F
:102D3000000370910103841B950BA60BB70B209128
:102D4000560330915703A901662757FD6095762FEA
:102D5000481759076A077B0750F460E021303105B6
:102D600019F487E491E00BC08FE491E008C0813A48
:102D70009F40A105B10530F060E088E591E00E9438
:102D80003F0834C020343F4189F564E080E691E09B
:102D90000E943F0880915803909159034AE0489F50
:102DA0009001499F300D112440E060E081E00E94D5
:102DB000BC041CC01092610310925703109256037A
:102DC00080912A0390912B03A0912C03B0912D03A5
:102DD0008093FE029093FF02A0930003B09301033F
:102DE00010923D0310923C031092630380916103A3
:102DF000882309F45AC20E940E140E9498030E946C
:102E00002A1490933D0380933C030E947413909383
:102E10002F0380932E039C01A3E3B0E00E941628A9
:102E20008B019C0180913C0390913D03FAE08F2E31
:102E3000912CB4010E94A727DB01A90198010E94EF
:102E40002C2820EA36E841E050E00E94F127309338
:102E50003503209334030E94EB1390933F03809338
:102E60003E030E94AE2460930A0370930B03809389
:102E70000C0390930D030091EE021091EF0220914C
:102E8000F0023091F1026B017C01C01AD10AE20A12
:102E9000F30AC0920603D0920703E0920803F0926F
:102EA00009036093EE027093EF028093F002909317
:102EB000F10200913E0310913F03C114D104E104DB
:102EC000F10409F474C017FD72C080914003909121
:102ED0004103B4010E94BB27FB01C801B4010E9459
:102EE000BB27E60FF71F2BE830E0DF010E94252803
:102EF0009B01AC01C701B6010E949727E4E64E2E64
:102F0000512C612C712CA30192010E94CF2780913A
:102F1000FA029091FB02A091FC02B091FD02820F97
:102F2000931FA41FB51F8093FA029093FB02A093F6
:102F3000FC02B093FD021093410300934003A09064
:102F40003403B0903503C501B4010E94A7279B014B
:102F50008091360390913703B4010E94A727260F72
:102F6000371F8BE8829FD001839FB00D1124A701EA
:102F700096010E942C28A30192010E94CF278091E4
:102F8000EA029091EB02A091EC02B091ED02820F67
:102F9000931FA41FB51F8093EA029093EB02A093A6
:102FA000EC02B093ED02B0923703A092360317FF04
:102FB00031C08091460291E0980F9093460286308E
:102FC00058F11092610380912A0390912B03A091F4
:102FD0002C03B0912D038093FE029093FF02A093E7
:102FE0000003B09301031092460210923F03109227
:102FF0003E03109241031092400310923D03109241
:103000003C0310923703109236031092350310924E
:10301000340302C0109246028091FA029091FB02A2
:10302000A091FC02B091FD0281159A4CAA49BB43C4
:1030300070F18091F6029091F702A091F802B091A0
:10304000F9020196A11DB11D8093F6029093F7023B
:10305000A093F802B093F9028091F2029091F302EA
:10306000A091F402B091F5020196A11DB11D8093CB
:10307000F2029093F302A093F402B093F50210923F
:10308000FA021092FB021092FC021092FD02809153
:10309000EA029091EB02A091EC02B091ED02811551
:1030A0009A4CAA49BB4308F461C02091E6023091D2
:1030B000E7024091E8025091E9022F5F3F4F4F4FE6
:1030C0005F4F2093E6023093E7024093E80250936B
:1030D000E9028091E2029091E302A091E402B091B2
:1030E000E5020196A11DB11D8093E2029093E302D7
:1030F000A093E402B093E5021092EA021092EB0270
:103100001092EC021092ED028091DE029091DF02AB
:10311000A091E002B091E102281739074A075B0746
:1031200029F18090F6029090F702A090F802B090FA
:10313000F90281149104A104B104C1F02093DE02CC
:103140003093DF024093E0025093E102A8EEB3E037
:103150000E942C28A50194010E94CF272093DA0217
:103160003093DB024093DC025093DD0280915C03DC
:10317000811139C080913E0390913F03823D9105BA
:103180001CF081E080935D0380915D03882359F1F9
:103190008091D2029091D302A091D402B091D50235
:1031A000803E23E9920724E0A207B10570F4C80E1F
:1031B000D91EEA1EFB1EC092D202D092D302E09228
:1031C000D402F092D502419A0EC0419881E08093DA
:1031D0005C031092D2021092D3021092D402109289
:1031E000D50210925D0380912A0390912B03A09148
:1031F0002C03B0912D0340911E0350911F03609149
:103200002003709121037C018D01E41AF50A060B5D
:10321000170BB801A7014C3251406105710580F0D0
:1032200080931E0390931F03A0932003B093210368
:103230008091DA029091DB029093390380933803F6
:1032400080E88093990280E480937D026091380346
:103250007091390381E00E94D4060E94C6139093B6
:1032600045038093440320915F038A35910594F4CC
:1032700086361EEF910771F021110CC08091490232
:103280008451823090F086E08093490281E08093FF
:103290005F030BC0222349F08A35910534F08091F9
:1032A00048028093490210925F034C9922C080919A
:1032B000640381111EC080912A0390912B03A09179
:1032C0002C03B0912D034091160350911703609188
:1032D0001803709119037C018D01E41AF50A060B9D
:1032E000170BB801A701453651056105710508F0B6
:1032F000BCC5809109018823B9F14C9B35C08091F0
:103300006403882389F180912A0390912B03A09173
:103310002C03B0912D034091160350911703609137
:103320001803709119038C019D01041B150B260BCA
:10333000370BB901A8014D32514061057105A0F06C
:10334000209149022F5F2A3008F4A3C51092490248
:103350001092640310920B0180931A0390931B0345
:10336000A0931C03B0931D03809149020E940004A6
:103370008091490290E08A30910508F0A6C4FC01D2
:10338000E256FF4F0C94102880916403882309F4BF
:103390009CC480912A0390912B03A0912C03B0919F
:1033A0002D03409112035091130360911403709107
:1033B00015037C018D01E41AF50A060B170BB80101
:1033C000A701493B5B406105710508F47EC4809309
:1033D000160390931703A0931803B0931903109248
:1033E00009014C9B72C4109264031092610381E046
:1033F000809309016AC480912A0390912B03A091C4
:103400002C03B0912D034091260350912703609126
:10341000280370912903841B950BA60BB70B883EDC
:103420009340A105B10508F43FC00E947204909337
:1034300049038093480340912A0350912B036091E4
:103440002C0370912D034093260350932703609320
:1034500028037093290397FF03C010920A0103C049
:1034600021E020930A0120910A01211107C09195C2
:103470008195910990934903809348038091480373
:103480009091490346E0489F9001499F300D1124D7
:1034900097FD03969595879595958795820F931F30
:1034A0009093490380934803209148033091490346
:1034B00041E061E080910A010E94BC0464E088E977
:1034C00091E044C080912A0390912B03A0912C039A
:1034D000B0912D0340912203509123036091240366
:1034E00070912503841B950BA60BB70B8C32914072
:1034F000A105B105F8F080916103882319F00E94BD
:10350000761404C0809146039091470390933B0347
:1035100080933A0380912A0390912B03A0912C036E
:10352000B0912D038093220390932303A09324034F
:10353000B093250320913A0330913B0341E061E0D1
:1035400081E00E94BC0464E085E691E00E943F08AF
:10355000BCC32091640380912A0390912B03A09116
:103560002C03B0912D03222371F14091120350914D
:10357000130360911403709115037C018D01E41A0B
:10358000F50A060B170BB801A701493B5B40610523
:103590007105C8F08093160390931703A093180346
:1035A000B0931903109209014C9B05C0109264035B
:1035B00021E0209309011092F2021092F30210927E
:1035C000F4021092F502409122035091230360917E
:1035D0002403709125037C018D01E41AF50A060B82
:1035E000170BB801A7014C32514061057105B0F0CD
:1035F0008093220390932303A0932403B093250385
:103600002091F2023091F3024AE0429FC001439FB1
:10361000900D112490933B0380933A0320913A0339
:1036200030913B0340E061E081E00E94BC0465E032
:103630008AE691E08BCF2091640380912A039091D8
:103640002B03A0912C03B0912D03222371F1409103
:1036500012035091130360911403709115037C01C0
:103660008D01E41AF50A060B170BB801A701493BB7
:103670005B4061057105C8F08093160390931703B2
:10368000A0931803B0931903109209014C9B05C035
:103690001092640321E0209309011092E20210923B
:1036A000E3021092E4021092E5024091220350914D
:1036B000230360912403709125037C018D01E41A9A
:1036C000F50A060B170BB801A7014C3251406105F2
:1036D000710580F08093220390932303A093240329
:1036E000B09325038091E2029091E30290933B0313
:1036F00080933A0320913A0330913B0340E061E02C
:1037000081E00E94BC0464E08EE691E01FCF8091CE
:103710006403882309F446C080912A0390912B0307
:10372000A0912C03B0912D034091120350911303EB
:1037300060911403709115037C018D01E41AF50A60
:10374000060B170BB801A701493B5B4061057105EA
:1037500048F18093160390931703A0931803B09336
:103760001903109209014C9B05C01092640381E07B
:10377000809309011092E6021092E7021092E8028B
:103780001092E9021092F6021092F7021092F802DB
:103790001092F9021092DA021092DB021092DC020F
:1037A0001092DD0240913E0350913F03209134037B
:1037B000309135034C335105E4F0A4E6B0E00E94AB
:1037C00016286B017C01CA016AE070E00E94BB27E9
:1037D0009B01442737FD4095542FC701B6010E9435
:1037E000F127309333032093320364E087E891E0BC
:1037F00007C0309333032093320364E08CE891E0F8
:103800000E943F0880912A0390912B03A0912C03E2
:10381000B0912D0340912203509123036091240322
:10382000709125037C018D01E41AF50A060B170B34
:10383000B801A7014C3251406105710580F08093B9
:10384000220390932303A0932403B0932503809134
:1038500032039091330390933B0380933A0320917A
:103860003A0330913B0341E061E081E0CCC08091BC
:103870006103882309F44AC080912A0390912B03A5
:10388000A0912C03B0912D0340912203509123036A
:1038900060912403709125037C018D01E41AF50ADF
:1038A000060B170BB801A7014C3251406105710599
:1038B00018F1209144033091450337FF0AC0319538
:1038C00021953109309345032093440310920A0156
:1038D00003C021E020930A018093220390932303E5
:1038E000A0932403B0932503809144039091450352
:1038F00090933B0380933A0320913A0330913B032A
:1039000041E060E080910A010E94BC0463E080E92C
:1039100091E01CCE809161038823B1F180912A034C
:1039200090912B03A0912C03B0912D034091220381
:103930005091230360912403709125037C018D0134
:10394000E41AF50A060B170BB801A7014C325140D7
:103950006105710580F08093220390932303A09367
:103960002403B093250380913C0390913D039093F1
:103970003B0380933A0320913A0330913B0341E0AB
:1039800060E081E00E94BC0465E08DE991E0DECD5D
:1039900064E081EA91E00E943F08809161038823FE
:1039A00009F493C180912A0390912B03A0912C03D9
:1039B000B0912D038093220390932303A0932403BB
:1039C000B09325030E944E149093430380934203C7
:1039D00097FF0AC091958195910990934303809335
:1039E000420310920A0103C081E080930A012091F2
:1039F00042033091430330933B0320933A0341E069
:103A000061E080910A010E94BC045FC180912A0399
:103A100090912B03A0912C03B0912D0340910E03A4
:103A200050910F0360911003709111037C018D017F
:103A3000E41AF50A060B170BB801A70141315742EA
:103A400061057105A0F02091060130910701232B3B
:103A500071F480930E0390930F03A0931003B0931F
:103A600011030E94C91090930701809306012091D1
:103A70006103211123C080912A0390912B03A0910F
:103A80002C03B0912D0340911203509113036091C8
:103A9000140370911503841B950BA60BB70B813192
:103AA0009742A105B10550F0809106019091070160
:103AB000039621F41092070110920601809164038D
:103AC000882309F453C080912A0390912B03A0917D
:103AD0002C03B0912D034091120350911303609178
:103AE0001403709115037C018D01E41AF50A060B8D
:103AF000170BB801A701493B5B4061057105B0F1A7
:103B00008093160390931703A0931803B09319039F
:103B1000109209018EEF9FEF9093070180930601A9
:103B20004C9B24C08DEF9FEF90930701809306017B
:103B300081E08093090110926003109264038091E8
:103B40004A0390914B031816190674F421110CC006
:103B50000E946E1010924B0310924A0381E090E095
:103B600090930701809306011092610380910601F2
:103B700090910701019629F460E086EA91E00E94A5
:103B80003F0880910601909107010396029728F45F
:103B900060E08FEA91E00E943F08809106019091D9
:103BA0000701892B29F460E084EB91E00E943F0833
:103BB0008091060190910701019709F066C08091FC
:103BC0002A0390912B03A0912C03B0912D034091D7
:103BD0000E0350910F036091100370911103841B29
:103BE000950BA60BB70B893B9B40A105B10508F4CB
:103BF00047C080916003811134C00E94821190936C
:103C00004B0380934A0321E02093600318161906A2
:103C100084F4BC01CE0101960E94FD11BE016F5FCC
:103C20007F4F85E693E00E94AF26CE0101960E9469
:103C30002B2680914A0390914B03892B31F46DEB35
:103C400071E085E693E00E94CF2680914A0390912F
:103C50004B03019631F464EC71E085E693E00E9439
:103C6000CF2620E030E046E050E0BE016F5F7F4F9E
:103C700085E693E00E946C2760E0CE01019603C0C8
:103C800060E087E491E00E943F0860910601709136
:103C9000070162307105CCF040E1CE0107960E9429
:103CA000E72620E030E046E050E0BE016F5F7F4F46
:103CB000CE0107960E946C2760E0CE0101960E941B
:103CC0003F08CE0107960E942B2680912A039091EF
:103CD0002B03A0912C03B0912D0340911A03509116
:103CE0001B0360911C0370911D03841B950BA60B95
:103CF000B70B80339547A105B10578F080910B0192
:103D000081110BC0609149021A821982CE0101967D
:103D10000E94BE0181E080930B0180913C03909151
:103D20003D0389350BE1900718F01092080135C06A
:103D3000892B99F58091080181112FC010925C03A5
:103D400081E08093080189E090E09A83898361E0B3
:103D5000CE0101960E94BE018AE090E09A83898399
:103D600060E0CE0101960E94BE0166EE72E081E045
:103D700090E00E94DE0166EF72E085E090E00E9434
:103D8000DE0162EE72E08AE090E00E94DE0162EF06
:103D900072E08EE090E00E94DE016091620322EA10
:103DA00032E046E752E080E090E0F901E80FF91FC9
:103DB000DA01A80FB91F7C91A081A71711F07083B9
:103DC00061E001968B30910581F7255F3F4F455F9C
:103DD0005F4F12E02E3C310731F760936203662398
:103DE00031F082EA92E00E947802109262036091C0
:103DF0002E0370912F0389E20E944B1080913C03A7
:103E000090913D030AE010E0B8010E94A72781E2EB
:103E10000E944B1080913E0390913F03B8010E9495
:103E2000BB278FE20E944B10809144039091450381
:103E3000B8010E94BB2780E10E944B102C960FB660
:103E4000F894DEBF0FBECDBFDF91CF911F910F91D0
:103E5000FF90EF90DF90CF90BF90AF909F908F90AA
:103E60007F906F905F904F9008958093120390938E
:103E70001303A0931403B093150321E0209364036C
:103E80008093160390931703A0931803B09319031C
:103E900030CA209349025CCAFF920F931F93CF93BD
:103EA000DF93FC010081C181D281F8948981F02ED9
:103EB000F0948F21898378941DE7115029F182E0D5
:103EC00090E00E94F92488818023B9F3F8948A81D4
:103ED0008F218A838981802B8983789480EE91E079
:103EE0000E94F924F89489818F21898386E490E0E7
:103EF0000E94F9248881802311E009F010E0789471
:103F00008AE991E00E94F924812FDF91CF911F91DE
:103F10000F91FF9008951F93CF93DF93FC011081C1
:103F2000C181D281912F909560FF12C0F8948A814F
:103F300089238A838981812B89838AE090E00E948A
:103F4000F9248A81812B8A83789487E390E011C0D9
:103F5000F8948A8189238A838981812B898381E4EA
:103F600090E00E94F9248A81812B8A83789485E0ED
:103F700090E0DF91CF911F910C94F9240F931F9340
:103F8000CF93DF93FC011081C181D281F8948981A4
:103F9000812B89838A81012F009580238A8383E086
:103FA00090E00E94F9248981802389838AE090E04F
:103FB0000E94F924C881789485E390E00E94F92456
:103FC0001C2381E009F480E0DF91CF911F910F91D4
:103FD0000895CF92DF92EF92FF920F931F93CF93AA
:103FE000DF931F92CDB7DEB76C01E62E08E010E03C
:103FF000FF24F39461E09F2D9E2109F460E0C60147
:1040000049830E948B1FFF0C015011094981011542
:10401000110581F7411115C0F894D6011196ED9163
:10402000FC91129791818C918095892381831196BF
:10403000ED91FC91129792818C91809589238283D6
:1040400078940F90DF91CF911F910F91FF90EF9097
:10405000DF90CF900895EF92FF920F931F93CF932D
:10406000DF938C01C8E0D0E0F12CEE24E394C8018A
:104070000E94BE1F8111FE28EE0C2197C1F78F2DE3
:10408000DF91CF911F910F91FF90EF900895CF9204
:10409000DF92FF920F931F93CF93DF931F92CDB7C1
:1040A000DEB78C01F62E40E065E579830E94E91FBA
:1040B000CF2C7981D72E88E0F82EF60161916F011F
:1040C00040E0C8010E94E91FFA94B9F70F90DF9110
:1040D000CF911F910F91FF90DF90CF900895FC0139
:1040E00013861586148627E030E0DF01A20FB31F88
:1040F00013961C922115310519F021503109F5CF85
:1041000008951F93CF93DF93EC01162F60E0812F6A
:104110000E948425612F70E0FB01EC59FD4FE49172
:10412000E883FB01E858FD4FE491F0E0EE0FFF1F3C
:10413000E457FD4F859194919A838983CE01DF9155
:10414000CF911F910C946F20AF92BF92CF92DF92CC
:10415000EF92FF920F931F93CF93DF931F92CDB7F0
:10416000DEB75C01E62ED72EFC01858581115DC08E
:10417000C5010E944C1F811105C0F50113861586EB
:1041800014866EC040E060EFC5010E94E91F01E0A7
:10419000F12CC12C11E0C5010E94BE1F682FC50182
:1041A00069830E94BE1F6981613019F48130B9F4BE
:1041B00033C02F2D30E068131BC0F501838518171D
:1041C00030F4E20FF31F8381802349F402C01817F3
:1041D00031F060E0193058F4F501148708C0F5019A
:1041E000EF0DF11D8381802B838361E009C0C12E17
:1041F000F501E20FF31F8381902F9095892383832C
:10420000C5010E948B1F1F5F000F11F4F39401E0A2
:10421000F7E0FF1508F0BFCF113438F0F501C38681
:10422000C11018C081E0858715C0F5011386158679
:10423000148680E0EE2DFD2D20E030E0D501A20FA8
:10424000B31F13969C9191932F5F3F4F28303105F8
:10425000A9F706C0F5018381882339F381E0EACF0D
:104260000F90DF91CF911F910F91FF90EF90DF9012
:10427000CF90BF90AF900895DC0180E0615038F09E
:10428000ED91E827F0E0E05BFE4F8491F7CF0895D1
:104290002091DC033091DD0328173907B9F49091A0
:1042A0009A0380919B03981789F0E0919A03F0E0BC
:1042B000E456FC4F808120919A0330E02F5F3F4FFE
:1042C0002F73332720939A0390E008958FEF9FEF89
:1042D00008951F93CF93DF93DC015C968D919C91A1
:1042E0005D97009749F481E090E013969C938E933C
:1042F000129780E090E03BC05196ED91FC9152976F
:1043000050962C915097322F30951FB75E964C9156
:104310005E9741FB772770F941FD6095F8944081E5
:10432000772311F0422B01C043234083EC012197F6
:10433000F1F748E0508160FF02C0522B01C05323C7
:104340005083EC012197F1F76695415099F78081F0
:10435000772311F0832301C0822B80831FBF5C96DB
:104360008D919C915D970197F1F781E090E0DF914D
:10437000CF911F9108952091DC033091DD03281720
:10438000390781F490919A0380919B03981751F01B
:10439000E0919A03F0E0E456FC4F8081992787FD75
:1043A000909508958FEF9FEF08952091DC03309151
:1043B000DD032817390771F480919B0320919A033C
:1043C00090E0805C9F4F821B910960E470E00E9446
:1043D000BB27089580E090E008952091DC033091A0
:1043E000DD032817390739F48FB7F89410929B032F
:1043F00010929A038FBF0895E091DC03F091DD03E2
:10440000E817F90769F4A389B4899C918589809597
:1044100089238C931092DD031092DC0381E00895D0
:1044200080E00895CF93DF93EC018A8D9B8D892BDB
:10443000F1F08091DC039091DD038C179D07B9F0BA
:10444000009711F00E94FC218E8D8E7F8E8F10922E
:104450009B0310929A03D093DD03C093DC03EB8996
:10446000FC8980819D89892B808381E001C080E067
:10447000DF91CF9108951F920F920FB60F921124E2
:104480002F933F934F935F936F937F938F939F935C
:10449000AF93BF93EF93FF93E091DC03F091DD03C3
:1044A000309709F451C0868DA685B785958581FF23
:1044B00004C08C91892329F447C08C91892309F089
:1044C00043C0A389B4899C918589809589238C9365
:1044D000868997890197F1F7208D318DA685B7855B
:1044E000758558E040E0C9010197F1F7842F90E00D
:1044F00095958795482F6C91672309F04068515036
:1045000091F7868D81FD409580919B0390E0019607
:104510008F73992720919A03281749F0A0919B0344
:10452000B0E0A456BC4F4C9380939B0303C0868D90
:104530008160868F828D938D0197F1F7A389B4896D
:104540008C919589892B8C93FF91EF91BF91AF91BD
:104550009F918F917F916F915F914F913F912F919B
:104560000F900FBE0F901F90189521ED31E0FC01C8
:10457000318320830C94FC211F93CF93DF93EC01B4
:10458000162F6E8D6695617081E06827812F0E94DD
:10459000BD2561E0812F0E948425812F90E0FC01E0
:1045A000EC59FD4FE491E88BFC01E858FD4FE49194
:1045B000F0E0EE0FFF1FEA56FD4F859194919A8B24
:1045C000898BDF91CF911F9108951F93CF93DF9334
:1045D000EC01162F60E0812F0E9484258E8D81FDD5
:1045E00004C061E0812F0E94BD251C87812F90E0CF
:1045F000FC01EC59FD4FE491ED87FC01E858FD4FBB
:10460000E491F0E0EE0FFF1FE457FD4F8591949188
:104610009F878E87DF91CF911F910895FF920F930F
:104620001F93CF93DF93EC01F62E522F1B821A8239
:1046300008EE13E020E030E00C831D832E833F83DF
:1046400081ED91E0998388831F8A1E8A198E188EC6
:104650001B8E1A8E1D8E1C8E8E8D8E7F50FB81F9C7
:104660008E8F642FCE010E94BC226F2DCE01DF9170
:10467000CF911F910F91FF900C94E522CF93DF9380
:10468000EC019A01AB011B8E1A8E198E188E1F8AAF
:104690001E8A60E079E08DE390E00E94F127C90175
:1046A0002430310520F0B9016350710902C061E086
:1046B00070E07D8F6C8FEC85E63108F068C0B90141
:1046C000769567956431710518F06351710902C0E0
:1046D00061E070E07F8B6E8B069718F0C90105973B
:1046E00002C081E090E0998F888FC901880F991FDF
:1046F000820F931F96958795969587958D30910596
:1047000010F00C9702C081E090E09B8F8A8F20917F
:104710006800E83050F091E0EE3008F490E081E07D
:1047200001C0880F9A95EAF701C084E0822B80933C
:1047300068002C85283038F02E3040F0263148F4BF
:104740008CE690E008C08DE690E005C08BE690E036
:1047500002C080E090E09C8B8B8B283030F481E0AD
:1047600001C0880F2A95EAF70DC0822F90E02E3005
:1047700010F4089701C00E9791E001C0990F8A9537
:10478000EAF7892F8D8B8C8D9D8D0197F1F7CE01E6
:10479000DF91CF910C9412220C94FC218230E8F42A
:1047A000E82FF0E0EE0FFF1FE252FC4F71836083B1
:1047B000813041F0809169008C7F842B8093690067
:1047C000E89A089580916900440F551F440F551FC2
:1047D000837F842B80936900E99A0895823068F47E
:1047E000813011F0E89801C0E998E82FF0E0EE0F71
:1047F000FF1FE252FC4F1182108208951F920F9208
:104800000FB60F9211242F933F934F935F936F93A3
:104810007F938F939F93AF93BF93EF93FF93809179
:10482000DE039091DF03892B29F0E091DE03F09104
:10483000DF030995FF91EF91BF91AF919F918F9108
:104840007F916F915F914F913F912F910F900FBE8C
:104850000F901F9018951F920F920FB60F92112470
:104860002F933F934F935F936F937F938F939F9378
:10487000AF93BF93EF93FF938091E0039091E10397
:10488000892B29F0E091E003F091E1030995FF9174
:10489000EF91BF91AF919F918F917F916F915F91B8
:1048A0004F913F912F910F900FBE0F901F90189531
:1048B0001F920F920FB60F9211242F933F938F9355
:1048C0009F93AF93BF938091E3039091E403A091F2
:1048D000E503B091E6033091E20323E0230F2D3787
:1048E00020F40196A11DB11D05C026E8230F0296F4
:1048F000A11DB11D2093E2038093E3039093E40391
:10490000A093E503B093E6038091E7039091E80359
:10491000A091E903B091EA030196A11DB11D809316
:10492000E7039093E803A093E903B093EA03BF91F0
:10493000AF919F918F913F912F910F900FBE0F904C
:104940001F9018952FB7F8946091E3037091E403DA
:104950008091E5039091E6032FBF08953FB7F89447
:104960008091E7039091E803A091E903B091EA03F5
:1049700026B5A89B05C02F3F19F00196A11DB11DBA
:104980003FBF6627782F892F9A2F620F711D811DD7
:10499000911D42E0660F771F881F991F4A95D1F736
:1049A0000895CF92DF92EF92FF92CF93DF936B0146
:1049B0007C010E94AE24EB01C114D104E104F10496
:1049C00089F00E9496270E94AE246C1B7D0B683EE6
:1049D000734090F381E0C81AD108E108F108C8518A
:1049E000DC4FEACFDF91CF91FF90EF90DF90CF9037
:1049F0000895019739F0880F991F880F991F029722
:104A00000197F1F70895789484B5826084BD84B5E8
:104A1000816084BD85B5826085BD85B5816085BDB9
:104A2000EEE6F0E0808181608083E1E8F0E01082D2
:104A3000808182608083808181608083E0E8F0E013
:104A4000808181608083E1EBF0E0808184608083FD
:104A5000E0EBF0E0808181608083EAE7F0E0808134
:104A60008460808380818260808380818160808394
:104A70008081806880831092C10008958E3008F094
:104A80008E50877020910C0190E4299F9001112491
:104A9000822B80937C0080917A00806480937A00DE
:104AA00080917A0086FDFCCF80917800209179007A
:104AB00090E0922B0895833081F028F4813099F0B2
:104AC0008230A1F008958730A9F08830B9F08430A1
:104AD000D1F4809180008F7D03C0809180008F771A
:104AE00080938000089584B58F7702C084B58F7D50
:104AF00084BD08958091B0008F7703C08091B0008D
:104B00008F7D8093B0000895CF93DF9390E0FC01F8
:104B1000EC59FD4F2491FC01E858FD4F8491882306
:104B200049F190E0880F991FFC01E056FD4FA591D7
:104B3000B4918A569D4FFC01C591D4919FB76111E4
:104B400008C0F8948C91209582238C9388818223CD
:104B50000AC0623051F4F8948C91322F309583233F
:104B60008C938881822B888304C0F8948C91822B4B
:104B70008C939FBFDF91CF9108950F931F93CF9395
:104B8000DF931F92CDB7DEB7282F30E0F901E05B4D
:104B9000FD4F8491F901EC59FD4F1491F901E8584A
:104BA000FD4F04910023C9F0882321F069830E94FE
:104BB0005B256981E02FF0E0EE0FFF1FEA56FD4F05
:104BC000A591B4919FB7F8948C91611103C0109591
:104BD000812301C0812B8C939FBF0F90DF91CF91D8
:104BE0001F910F91089508950E9403250E94F325B7
:104BF0000E949902C0E0D0E00E949A142097E1F34D
:104C00000E940000F9CFCF92DF92EF92FF920F93B4
:104C10001F93CF93DF936C017A01EB01E60EF71E31
:104C200000E010E0CE15DF0561F06991D601ED914D
:104C3000FC910190F081E02DC6010995080F191F24
:104C4000F1CFC801DF91CF911F910F91FF90EF90AD
:104C5000DF90CF900895FC01808191810C94CF2842
:104C6000CF93DF93EC0188819981009711F00E9426
:104C7000CF28198218821D821C821B821A82DF9122
:104C8000CF9108950F931F93CF93DF93EC018B0186
:104C90006F5F7F4F888199810E945E29009731F074
:104CA000998388831B830A8381E001C080E0DF91C0
:104CB000CF911F910F910895CF93DF93EC018881DD
:104CC0009981892B29F08A819B818617970760F447
:104CD000CE010E944226882341F08C819D81892B40
:104CE00019F4E881F981108281E0DF91CF91089574
:104CF000EF92FF920F931F93CF93DF93EC017B0111
:104D00008A01BA010E945C26811104C0CE010E9472
:104D1000302607C01D830C83B701888199810E94CA
:104D2000312ACE01DF91CF911F910F91FF90EF902B
:104D30000895FC011182108213821282158214825E
:104D40006115710559F0FB0101900020E9F7AF01F1
:104D500041505109461B570B0C9478260895CF9368
:104D6000DF93EC01FB018617970761F06081718189
:104D70006115710529F0448155810E94782602C091
:104D80000E943026CE01DF91CF910895FC0111825F
:104D9000108213821282158214820C94AF26CF9354
:104DA000DF93EC016115710561F0FB0101900020BA
:104DB000E9F7AF0141505109461B570B0E94782675
:104DC00002C00E943026CE01DF91CF9108950F934B
:104DD0001F93CF93DF93CDB7DEB762970FB6F894EA
:104DE000DEBF0FBECDBF8C01CB01F8011182108256
:104DF000138212821582148250E0BE016F5F7F4FD2
:104E00000E94472ABE016F5F7F4FC8010E94CF26D4
:104E100062960FB6F894DEBF0FBECDBFDF91CF9183
:104E20001F910F910895EF92FF920F931F93CF93CD
:104E3000DF93EC017B010C811D816115710511F47B
:104E400080E016C04115510591F0040F151FB801FF
:104E50000E945C268823A1F3288139818C819D8161
:104E6000B701820F931F0E94312A1D830C8381E0BA
:104E7000DF91CF911F910F91FF90EF900895CF9305
:104E8000DF93EC01FB0144815581608171810E94B7
:104E90001327811103C0CE010E943026CE01DF917D
:104EA000CF910895CF93DF93EC016115710569F0FF
:104EB000FB0101900020E9F7AF0141505109461B69
:104EC000570B0E941327811103C0CE010E94302688
:104ED000CE01DF91CF9108950F931F93CF93DF936E
:104EE000EB0141155105E9F02097D9F0FC016481EF
:104EF000758126173707A0F4621B730B8A010150D6
:104F000011096017710708F48B01FC016081718140
:104F1000620F731FA801CE010E94382AC00FD11F53
:104F20001882DF91CF911F910F9108950895DB01B1
:104F30008F939F930E942C28BF91AF91A29F800DC9
:104F4000911DA39F900DB29F900D11240895AA1B4F
:104F5000BB1B51E107C0AA1FBB1FA617B70710F064
:104F6000A61BB70B881F991F5A95A9F78095909596
:104F7000BC01CD01089597FB072E16F4009407D0CD
:104F800077FD09D00E94A72707FC05D03EF4909535
:104F900081959F4F0895709561957F4F0895A1E287
:104FA0001A2EAA1BBB1BFD010DC0AA1FBB1FEE1FA3
:104FB000FF1FA217B307E407F50720F0A21BB30BEE
:104FC000E40BF50B661F771F881F991F1A9469F76A
:104FD00060957095809590959B01AC01BD01CF01C6
:104FE0000895052E97FB1EF400940E94082857FD93
:104FF00007D00E94CF2707FC03D04EF40C9408285A
:1050000050954095309521953F4F4F4F5F4F0895F4
:1050100090958095709561957F4F8F4F9F4F089524
:10502000EE0FFF1F0590F491E02D0994A29FB001AF
:10503000B39FC001A39F700D811D1124911DB29FCC
:10504000700D811D1124911D08950E941628B7FF2F
:105050000895821B930B08950E941628A59F900D1A
:10506000B49F900DA49F800D911D11240895CF939E
:10507000DF938230910510F482E090E0E091ED033F
:10508000F091EE0320E030E0A0E0B0E0309739F19D
:105090004081518148175907B8F04817590771F4F2
:1050A00082819381109729F013969C938E93129787
:1050B0002CC09093EE038093ED0327C0211531059A
:1050C00031F04217530718F0A901DB0101C0EF01CD
:1050D0009A01BD01DF010280F381E02DD7CF2115B8
:1050E0003105F9F0281B390B2430310580F48A8111
:1050F0009B816115710521F0FB019383828304C0BC
:105100009093EE038093ED03FE01329644C0FE01BE
:10511000E20FF31F81939193225031093983288341
:105120003AC02091EB033091EC03232B41F4209102
:105130000201309103013093EC032093EB032091A3
:105140000001309101012115310541F42DB73EB721
:105150004091040150910501241B350BE091EB03B4
:10516000F091EC03E217F307A0F42E1B3F0B281776
:10517000390778F0AC014E5F5F4F2417350748F0D0
:105180004E0F5F1F5093EC034093EB038193919379
:1051900002C0E0E0F0E0CF01DF91CF910895CF931E
:1051A000DF93009709F487C0FC01329713821282C3
:1051B000C091ED03D091EE03209781F420813181DD
:1051C000280F391F8091EB039091EC03821793070E
:1051D00079F5F093EC03E093EB036DC0DE0120E082
:1051E00030E0AE17BF0750F412964D915C911397C3
:1051F0009D014115510509F1DA01F3CFB383A28373
:1052000040815181840F951F8A179B0771F48D91FE
:105210009C911197840F951F02969183808312961B
:105220008D919C911397938382832115310529F4E5
:10523000F093EE03E093ED033EC0D9011396FC9387
:10524000EE9312974D915D91A40FB51FEA17FB07DE
:1052500079F480819181840F951F0296D90111966E
:105260009C938E938281938113969C938E93129735
:10527000E0E0F0E08A819B81009719F0FE01EC01EB
:10528000F9CFCE01029628813981820F931F209198
:10529000EB033091EC032817390769F4309729F4B0
:1052A0001092EE031092ED0302C013821282D0938B
:1052B000EC03C093EB03DF91CF910895A0E0B0E041
:1052C000E4E6F9E20C94A12AEC01CB01209719F451
:1052D0000E943728B8C0FE01E60FF71F9E0122503A
:1052E0003109E217F30708F4ACC0D9010D911C9104
:1052F000119706171707B8F00530110508F49FC07D
:10530000A801445051094617570708F498C00250A5
:105310001109061B170B019311936D937C93CF0119
:105320000E94CF288CC05B01A01AB10A4E01800EEA
:10533000911EA091ED03B091EE03612C712C60E001
:1053400070E0109709F449C0A815B905C9F5ED90AA
:10535000FC901197670142E0C40ED11CCA14DB0413
:1053600078F147018A189B08640142E0C40ED11C01
:105370001296BC9012971396AC91B5E0CB16D1045F
:1053800040F0B282A38391828082D9018D939C9355
:1053900009C00E5F1F4F0E0D1F1DF9011183008301
:1053A000EB2DFA2F6115710531F0DB011396FC939B
:1053B000EE93129744C0F093EE03E093ED033FC0E9
:1053C0006D917C9111976616770608F43B01BD013B
:1053D00012960D90BC91A02DB4CF6091EB0370910B
:1053E000EC0368157905E9F468167906D0F4409164
:1053F0000001509101014115510541F44DB75EB7CF
:105400006091040170910501461B570BE417F507E5
:10541000C0F4F093EC03E093EB03F90191838083F4
:105420000EC00E9437287C01009759F0A801BE01E8
:105430000E94282ACE010E94CF28C70104C0CE01B5
:1054400002C080E090E0CDB7DEB7EEE00C94BD2A5C
:10545000FB01DC0102C001900D9241505040D8F791
:105460000895FB01DC0101900D920020E1F7089501
:10547000FB01DC014150504048F001900D920020AA
:10548000C9F701C01D9241505040E0F708954532E0
:10549000510520F4423010F00C94522AFB01108286
:1054A000CB010895BB274A3031F4992322F4BDE2A1
:1054B000909581959F4F0C945E2ABB27FB01552741
:1054C000AA27880F991FAA1FA41710F0A41B839561
:1054D0005051B9F7A05DAA3308F0A95DA1930097D8
:1054E00079F7B111B1931192CB010C948D2AF999EE
:1054F000FECF92BD81BDF89A992780B50895262FD9
:10550000F999FECF1FBA92BD81BD20BD0FB6F894A8
:10551000FA9AF99A0FBE01960895DC01FC01672FF3
:1055200071917723E1F7329704C07C916D9370837A
:105530006291AE17BF07C8F308952F923F924F9222
:105540005F926F927F928F929F92AF92BF92CF9213
:10555000DF92EF92FF920F931F93CF93DF93CDB71C
:10556000DEB7CA1BDB0B0FB6F894DEBF0FBECDBF94
:1055700009942A88398848885F846E847D848C8465
:105580009B84AA84B984C884DF80EE80FD800C816E
:105590001B81AA81B981CE0FD11D0FB6F894DEBF51
:1055A0000FBECDBFED01089512E0CCEAD2E004C0F9
:1055B000FE010E9412282296CE3AD107C9F7F8942C
:0255C000FFCF1B
:1055C2000000EF038000FFFF010101010168006A92
:1055D20000F1000400000068006A00F10001000C04
:1055E20000D00068006A00F10001000100000068BC
:1055F200006A00F1000300C600205030004353202F
:105602004552524F522000494E4954204F4B004DB3
:10561200555420494E49540057414954494E470078
:105622004641494C00564241540052554E00535592
:105632004D4D41524E495920524153484F442054F6
:105642004F504C495641004C313030004C314800EB
:10565200434F4F4C414E542054454D500052504DF3
:10566200004C54465400445443204D4F4445005787
:105672004149540049534F20494E4954004E4F204E
:105682004454430045525220524541440000000018
:0E5692000069210326D5214821BB21ED21000E
:00000001FF
